:100000000C945C050C948D050C948D050C948D0559
:100010000C948D050C948D050C948D050C948D0518
:100020000C948D050C948D050C948D050C948D0508
:100030000C948D050C944A080C948D050C948D0538
:100040000C948D050C94410D0C948D050C948D052C
:100050000C948D050C94CE0F0C948D050C948D058D
:100060000C948D050C94530E0C94840E0C948D05F9
:100070000C948D050C948D050C948D050C948D05B8
:100080000C948D050C948D050C948D050C948D05A8
:100090000C94B10E0C94E20E0C948D050C948D050D
:1000A0000C948D050C948D050C948D050C948D0588
:1000B0000C948D050C948D050C948D050C948D0578
:1000C0000C948D050C948D050C948D050C94100FDB
:1000D0000C94410F0C948D050C946E0F0C94A00F92
:1000E0000C948D05750C760C760C760C760C760CD3
:1000F000760C760C760C760C760C760C760C760CF0
:10010000760C760C760C760C670C760C760C760CEE
:10011000760C760C690C760C760C650C760C760CED
:10012000760C760C750C760C760C760C760C760CC0
:10013000760C760C760C760C760C760C6B0C760CBA
:10014000760C760C760C6D0C610C760C760C760CBD
:10015000760C760C630C760C760C760C760C760CA2
:100160006F0C720C0C946F0C0C94B5130C94A313BD
:100170000C9485100C9484100C9488100C946D0CC5
:100180000C94820C0C94610C0C94750C0C94361726
:100190000C9459140C94760C0C94630C0C940A0E69
:1001A0000C946B0C0C94650C0C944A060C94E706AA
:1001B0000C94690C0C94720C0C94670C0C946309ED
:1001C0005B4552524F525D20004865617020636F5D
:1001D0006C6C69646573207769746820676C6F6202
:1001E000616C2076617273002D2D2D2D2D2D2D2DFE
:1001F0002D2D2D2D2D2D2D2D2D2D2D2D2D2D2D2D2F
:100200002D2D2D2D2D2D2D2D2D2D2D2D2D2D2D2D1E
:100210002D2D2D2D2D2D2D2D2D2D0A005B494E46DA
:100220004F5D2020005573656420676C6F62616CC0
:1002300020766172733A2025642F256420627974D8
:100240006573005B494E464F5D202000426F6F741E
:10025000696E6720454F53202E2E2E000A0A232355
:10026000232323232323232323232323232323235E
:10027000232323232323232323232323232323234E
:10028000232323232323232323232323232323233E
:100290000A00426F6F74696E6720454F53202E2EFF
:1002A0002E0052756E6E657220766F6E206D6569D8
:1002B0006D2053706569636865722C20416C6C65B4
:1002C0007221005468657265206973206E6F206921
:1002D000646C652070726F6300537461636B2D43AF
:1002E000726173682100537461636B206F757420B1
:1002F0006F66204261756E747A00437269742E20B5
:1003000053656374696F6E202020756E6465726634
:100310006C6F7700437269742E2053656374696F44
:100320006E2020206F766572666C6F770043616E79
:10033000277420706F702066726F6D20656D707409
:100340007920726561647920717565756500436116
:100350006E27742070757368206F6E2066756C6CE4
:1003600020726561647920717565756500202020B3
:100370002020202020002020307800202020200075
:100380003078004D4150203D3D3D3D3D3D3D3D3DA2
:100390003D3D3D3D3D3D3D3D3D3D3D3D3D3D3D3D8D
:1003A0003D3D3D3D3D3D3D3D3D3D3D205553452081
:1003B0003D3D3D3D3D3D3D3D3D3D3D3D3D3D3D3D6D
:1003C0003D3D3D3D3D3D3D3D3D3D3D3D3D3D3D3D5D
:1003D0003D3D3D3D3D3D3D3D3D3D3D3D3D3D3D3D4D
:1003E0003D3D0A005B494E464F5D2020005072653E
:1003F00073732053454C45435420746F20616C6CDB
:100400006F63617465206D6F72652E2E2E005B49DF
:100410004E464F5D20200048656170207374617402
:1004200065206166746572206F735F667265653AF8
:10043000005B494E464F5D20200046726565696E3F
:10044000672025642042797465206F66206D656D94
:100450006F727920617420616464726573732030F7
:1004600078253034582E2E2E005B494E464F5D20A5
:1004700020002D20507265737320444F574E207416
:100480006F207465726D696E6174652070726F6340
:1004900065737320746F2074657374204761726292
:1004A00061676520436F6C6C656374696F6E005B98
:1004B000494E464F5D2020002D20507265737320F9
:1004C0004C45465420746F2066726565206C6173DC
:1004D000746C7920616C6C6F6361746564206D6508
:1004E0006D6F7279005B494E464F5D2020002D20D4
:1004F000507265737320524947485420746F2061CD
:100500006C6C6F63617465206D6F7265005B494E42
:10051000464F5D20200053656C65637420616E203A
:100520006F7074696F6E3A005B494E464F5D2020D4
:10053000004865617020737461746520616674653C
:10054000722077726974653A005B494E464F5D20B0
:10055000200057726974696E67202564204279749F
:1005600065206F66206D656D6F72792E2E2E005B93
:10057000494E464F5D2020005072657373205345ED
:100580004C45435420746F20777269746520746FF2
:100590002075736520646174612E2E2E005B494EB8
:1005A000464F5D2020004452495645522D3E6C6115
:1005B00073744368756E6B203D3D20307825303470
:1005C00058005B494E464F5D2020006F735F6D61A0
:1005D0006C6C6F632072657475726E656420616403
:1005E000647265737320307825303458005B494E4F
:1005F000464F5D20200050726573732053454C4573
:10060000435420746F207465726D696E6174652047
:10061000616C6C6F636174696F6E2070726F63657B
:10062000737320616E6420636F6E74696E75652EDE
:100630002E2E005B4552524F525D2000436F756C69
:1006400064206E6F7420616C6C6F636174652E2E14
:100650002E005B494E464F5D2020004865617020AA
:10066000737461746520616674657220616C6C6F6F
:10067000636174696F6E3A005B494E464F5D20209E
:1006800000416C6C6F636174696E67202564204261
:10069000797465206F66206D656D6F72792E2E2ED0
:1006A000005B494E464F5D202000416C6C6F6361DA
:1006B00074696F6E2070726F6365737320746572F6
:1006C0006D696E6174696E672E2E2E005B494E4611
:1006D0004F5D20200050726573732053454C454395
:1006E0005420746F2073746172742061206E65777A
:1006F00020616C6C6F636174696F6E2070726F63E0
:100700006573732E2E2E005B494E464F5D202000F0
:10071000416C6C6F636174696F6E2070726F63659A
:100720007373207465726D696E617465642E204305
:100730006865636B20696620746865204761726232
:1007400061676520436F6C6C656374696F6E2068C8
:10075000617320667265656420616C6C6F6361749F
:10076000696F6E732E2E2E005B494E464F5D202022
:10077000005374617274696E672050726F636573A1
:100780007320256420746F20616C6C6F63617465E5
:10079000206D656D6F72792E2E2E00436F756C641F
:1007A000206E6F7420737461727420616C6C6F635F
:1007B0006174696F6E2070726F63005B494E464FC3
:1007C0005D20200050726573732053454C4543549F
:1007D00020746F20616C6C6F63617465206D656D52
:1007E0006F72792E2E2E005B494E464F5D20200001
:1007F000496E697469616C207374617465206F66F9
:1008000020686561703A005B494E464F5D202000CC
:1008100050726573732053454C45435420746F20C8
:100820007072696E7420696E697469616C206865A4
:1008300061702073746174652E2E2E005B494E46E4
:100840004F5D202000416C6C6F636174696F6E2096
:1008500073747261746567792073657420746F3A7C
:100860002025532D466974005B494E464F5D20207C
:10087000003D3D3D3D3D3D3D3D3D3D3D3D3D3D3DE5
:100880003D3D3D3D3D3D3D3D3D3D3D3D3D3D3D3D98
:100890003D3D3D3D3D3D3D3D3D3D3D3D005B494E8A
:1008A000464F5D2020002020424F54544F4D5F4F53
:1008B000465F4D41494E5F535441434B3A202020FF
:1008C00020307825303458005B494E464F5D20205B
:1008D000002020424F54544F4D5F4F465F495352C2
:1008E0005F535441434B3A2020202020307825305C
:1008F0003458005B494E464F5D2020002020424F77
:1009000054544F4D5F4F465F50524F43535F5354C3
:1009100041434B3A202020307825303458005B4941
:100920004E464F5D202000202050524F43455353E8
:100930005F535441434B5F424F54544F4D282564FD
:10094000293A20307825303458005B494E464F5DB7
:1009500020200020204C6F776573742061646472DE
:10096000657373206F6620737461636B3A2030780F
:1009700025303458005B494E464F5D2020003D2015
:10098000535441434B20504152414D544552532002
:100990003D3D3D3D3D3D3D3D3D3D3D3D3D3D3D3D87
:1009A0003D3D3D3D3D3D3D3D3D005B494E464F5D3E
:1009B00020200020205553453A20202020202020B0
:1009C00020202020307825303458202D3E203078CB
:1009D0002530345820282564204279746529005B2D
:1009E000494E464F5D20200020204D41503A2020A6
:1009F000202020202020202020307825303458202E
:100A00002D3E203078253034582028256420427926
:100A1000746529005B494E464F5D20200020204F21
:100A200046465345543A202020202020202025648B
:100A30002042797465005B494E464F5D2020003DA1
:100A4000204845415020504152414D544552532079
:100A50003D3D3D3D3D3D3D3D3D3D3D3D3D3D3D3DC6
:100A60003D3D3D3D3D3D3D3D3D3D003E2055736599
:100A7000205465726D696E616C203C00207474486E
:100A80006561705465726D696E616C005B494E46BC
:100A90004F5D202000546573747461736B2048654A
:100AA0006170205465726D696E616C004669727385
:100AB0007400E706A313B51311241FBECFEFD1E2D4
:100AC000DEBFCDBF00E00CBF12E0A0E0B2E0E8E77F
:100AD000F4E300E00BBF02C007900D92A433B1070E
:100AE000D9F724E0A4E3B2E001C01D92AD38B2070B
:100AF000E1F715E0CCE5D5E000E006C0219701095B
:100B0000802FFE010E945317C935D10780E00807E6
:100B1000A9F70E948F050C943A1A0C9400000E94C9
:100B2000BA0588E592E00E943C100E94E30B0E9407
:100B3000F90681E090E00895E0EBF0E080818260CA
:100B40008083E1EBF0E0808184608083808182603B
:100B50008083808181608083E0E7F0E08081826033
:100B600080838CE38093B30008950E948B100E94D1
:100B7000C21008950E94F30F0E949C050E94720DFE
:100B80000E94940B0E94C60D0E948B0A0E94F30BD8
:100B90000E94E30B82E992E00E94870C8CE592E0D0
:100BA0000E94070E8CE492E09F938F9383E492E07F
:100BB0009F938F930E94210E83E08F9388EE8F93F3
:100BC0008DE892E09F938F9385E292E09F938F93BD
:100BD0008CE192E09F938F930E94210E88EE91E02A
:100BE0000E94070E89EC91E09F938F9381E02DE89E
:100BF00034E0283E354008F080E08F930E946B106F
:100C00000E94B5050E94E9078DB79EB70F960FB6F3
:100C1000F8949EBF0FBE8DBF0895CF93DF93CDB7DD
:100C2000DEB71E810F81F8948FEF91E29EBF8DBFDA
:100C30000E94E30BCE0108969F938F930F931F930F
:100C40000E94530BCE0108969F938F930F931F938F
:100C500080EC91E09F938F930E94210E0FB6F89441
:100C6000DEBF0FBECDBF0E94F30B9FEF2DE389E4E3
:100C7000915020408040E1F700C000000E94F70B37
:100C80009FEF21EE84E0915020408040E1F700C0CA
:100C90000000E9CF8EE20E943A0C84E690E00E94C8
:100CA0003C10F8CFBC01990F880B990B089521E0F7
:100CB00030E002C0220F331F8A95E2F780915F0473
:100CC000909160042823392381E0232B09F480E0EC
:100CD0000895803148F4E82FF0E0EE0FFF1FE15C4B
:100CE000FB4F80819181089580E090E0089590E02D
:100CF0009C01220F331F820F931F880F991F815F62
:100D00009B4F089590E0880F991F815C9B4F089539
:100D1000809136020895CF93DF93C0E0D0E08C2F0E
:100D20000E947706FC01918181E0911101C080E071
:100D3000D80FCF5FC83098F38D2FDF91CF910895F2
:100D4000809135020895CF93CFB7CC1FCC27CC1F0D
:100D5000F894809134028F3F49F484E193E09F93AB
:100D60008F930E940D060F900F9003C08F5F8093AA
:100D70003402E0E7F0E080818D7F8083CC2309F0AE
:100D80007894CF910895CF93CFB7CC1FCC27CC1FA9
:100D9000F89480913402811109C08AEF92E09F9308
:100DA0008F930E940D060F900F9003C08150809387
:100DB000340280913402811105C0E0E7F0E08081C7
:100DC00082608083CC2309F07894CF91089580E0ED
:100DD0000E9482062AE436E0FC0131832083809160
:100DE0005F049091600481609093600480935F043D
:100DF000089510923602EFE0F4E082E08183828170
:100E000093819EBF8DBF0F901F902F903F904F906A
:100E10005F906F907F908F909F90AF90BF90CF909A
:100E2000DF90EF90FF900F911F912F913F914F9185
:100E30005F916F917F918F919F91AF91BF91CF9172
:100E4000DF91EF91FF91FFBFFF91189582EA92E049
:100E50009F938F930E940D060F900F90089590E03E
:100E600044EE51E0849F9001859F300D949F300D9A
:100E700011246FE171E2621B730BFC01EE0FFF1F87
:100E8000E80FF91FEE0FFF1FE15FFB4F8281938197
:100E9000DB01A81BB90BB295A295AF70AB27BF7051
:100EA000AB2720E030E080E00CC0A29FA001A39F10
:100EB000500D1124FB01E41BF50B908189272F5F56
:100EC0003F4F203131058CF30895FF920F931F930C
:100ED000CF93DF93C82FD62F0E94A30680E090E027
:100EE0000FC0FC01EE0FFF1FE80FF91FEE0FFF1FF1
:100EF000E15FFB4F2181211102C0F82E06C001964F
:100F00008830910574F3FF24FA948FEFF81203C030
:100F10000E94C30657C08C2F0E946906892B19F4C2
:100F20000E94C3064FC00F2D10E0F801EE0FFF1F07
:100F3000E00FF11FEE0FFF1FE15FFB4F81E08183A8
:100F4000D483C0830E94A0066F2D0E94B20924EEB4
:100F500031E0029FC001039F900D129F900D11245C
:100F6000EFE1F1E2EF01C81BD90B83E699E00E94A3
:100F700052066883FE0172938293319780E090E07D
:100F800003C010823197019681329105D4F3E801B4
:100F9000CC0FDD1FDE01A00FB11FAA0FBB1FA15F89
:100FA000BB4F1396FC93EE9312978F2D0E942F0741
:100FB000FE01E00FF11FEE0FFF1FE15FFB4F858386
:100FC0000E94C3068F2DDF91CF911F910F91FF904B
:100FD0000895CF9380E090E00BC0FC01EE0FFF1F5F
:100FE000E80FF91FEE0FFF1FE15FFB4F1182019623
:100FF0008830910594F30E94A0060E94E90920918F
:101000003F043091400483EC92E09F938F9381E002
:10101000232B09F480E08F930E946B100F900F90A8
:101020000F90C0E00AC08C2F0E945706882321F041
:1010300061E08C2F0E946507CF5FC031A0F3CF9194
:10104000089590E0FC01EE0FFF1FE80FF91FEE0F6F
:10105000FF1FE15FFB4F6281738124EE31E0829FCD
:10106000A001839F500D929F500D11248FE191E2BA
:10107000841B950B2BE33FE1241B350B8617970749
:1010800028F02617370720F080E0089580E00895C3
:1010900081E00895FF93FFB7FF93EF93DF93CF9322
:1010A000BF93AF939F938F937F936F935F934F9370
:1010B0003F932F931F930F93FF92EF92DF92CF9264
:1010C000BF92AF929F928F927F926F925F924F9258
:1010D0003F922F921F9211240F928091360290E03E
:1010E0002DB73EB7FC01EE0FFF1FE80FF91FEE0F03
:1010F000FF1FE15FFB4F338322838FED91E29EBFA1
:101100008DBF10913602C12FD0E0FE01EE0FFF1F00
:10111000EC0FFD1FEE0FFF1FE15FFB4F818182305F
:1011200059F4FE01EE0FFF1FEC0FFD1FEE0FFF1F26
:10113000E15FFB4F81E08183812F0E9421088111B3
:1011400009C086EE92E09F938F930E940D060F9048
:101150000F900DC0812F0E942F079E01220F331F79
:10116000C20FD31FCC0FDD1FC15FDB4F8D830E94E9
:10117000A006811109C0609136028FE094E00E94C0
:1011800093098093360208C0609136028FE094E0A4
:101190000E94210A8093360280913602282F30E087
:1011A000F901EE0FFF1FE20FF31FEE0FFF1FE15FCC
:1011B000FB4FC5810E942F07C81741F089ED92E0CF
:1011C0009F938F930E940D060F900F90809136028F
:1011D00090E0FC01EE0FFF1FDF01A80FB91FAA0F5F
:1011E000BB1FA15FBB4F22E011962C931197FD010D
:1011F000828193819EBF8DBF0F901F902F903F9053
:101200004F905F906F907F908F909F90AF90BF9026
:10121000CF90DF90EF90FF900F911F912F913F9112
:101220004F915F916F917F918F919F91AF91BF91FE
:10123000CF91DF91EF91FF91FFBFFF9118958091C2
:101240003402811105C01092B200F8940E944A083D
:101250000895CF93C82F0E94A3068FEF8C0F87307D
:1012600070F48C2F90E0FC01EE0FFF1FE80FF91FC8
:10127000EE0FFF1FE15FFB4F2181211104C00E948F
:10128000C30680E01EC0FC01EE0FFF1FE80FF91F30
:10129000EE0FFF1FE15FFB4F11820E94A0066C2F33
:1012A0000E94B2090E948806C81308C081E080939A
:1012B00034020E94C3060E941F09FFCF0E94C3068A
:1012C00081E0CF9108950E948806C82F90E0FC012C
:1012D000EE0FFF1FE80FF91FEE0FFF1FE15FFB4F3F
:1012E00080810E946906FC0119958C2F0E942909B2
:1012F0000E941F09FFCFAC0191E00FC0292F30E001
:10130000F901EE0FFF1FE20FF31FEE0FFF1FE40FB7
:10131000F51F2181213029F09F5F983078F380E01C
:10132000089581E00895DC0140E050E014C06F5F53
:10133000962F977071F0292F30E0F901EE0FFF1F03
:10134000E20FF31FEE0FFF1FEA0FFB1F2181213079
:1013500039F04F5F5F4F483051054CF380E00895FE
:10136000892F0895CF93DF93813081F5D62FC0E088
:101370000AC02BE0C29FC00111246D2F8F599B4FD3
:101380000E94030DCF5FC330A0F38D2F90E0FC01CE
:10139000EE0FFF1FE80FF91FEE0FFF1FE15FFB4F7E
:1013A0002181213099F4FC01EE0FFF1FE80FF91F96
:1013B000EE0FFF1FE15FFB4F84812BE0829FC00196
:1013C00011246D2F8F599B4F0E94DC0CDF91CF9120
:1013D0000895CF93813099F5C0E009C02BE0C29FFA
:1013E000C00111248F599B4F0E94FF0CCF5FC33067
:1013F000A8F3C1E022C08C2F90E0FC01EE0FFF1F8C
:10140000E80FF91FEE0FFF1FE15FFB4F2181213035
:1014100099F4FC01EE0FFF1FE80FF91FEE0FFF1FFD
:10142000E15FFB4F84812BE0829FC00111246C2F70
:101430008F599B4F0E94DC0CCF5FC830E0F2CF91F8
:1014400008951F93CF93DF93EC01162F0E947B0921
:10145000882309F459C08CE694E00E94A00C811105
:1014600009C08CE694E00E94A70C682F81E694E006
:101470000E94DC0C87E794E00E94A00C811109C057
:1014800087E794E00E94A70C682F8CE694E00E9406
:10149000DC0C1123C1F0812F90E09C01220F331F3F
:1014A000820F931F880F991FC80FD91F8981813020
:1014B00051F48C812BE0829FC0011124612F8F5940
:1014C0009B4F0E94DC0C81E694E00E94A00C8111ED
:1014D00005C081E694E00E94A70C19C08CE694E058
:1014E0000E94A00C811105C08CE694E00E94A70C1C
:1014F0000EC087E794E00E94A00C811107C087E727
:1015000094E00E94A70C03C080E001C080E0DF915E
:10151000CF911F91089580B38E7F80BBECE7F0E000
:1015200080818064808387E880937A000895CF93D8
:10153000DF930E94A306ECE7F0E080818E7F80833A
:1015400080818D7F808380818B7F80838081877F76
:10155000808380818F7E8083EBE7F0E08081877FCE
:101560008083EAE7F0E080818064808380917A0064
:1015700086FDFCCFC0917800D09179000E94C3060F
:10158000C234D10580F0CB3DD10578F0C93881E077
:10159000D80768F0C83582E0D80758F0C836D3407D
:1015A00050F484E009C080E007C081E005C082E01B
:1015B00003C083E001C085E0DF91CF910895CF9310
:1015C000C82F0E94970A91E08C1390E0892FCF9149
:1015D0000895CF93C82F0E94970A91E08C1301C001
:1015E00090E0892FCF910895CF93C82F8C2F0E9420
:1015F000DF0A8823D9F3CF910895CF93C82F8C2F7A
:101600000E94E90A8823D9F3CF9108950E94A30686
:10161000E2E0F1E080818064808385E08A95F1F7E3
:10162000000080818F7B80838FE891E00197F1F744
:1016300000C000000E94C3060895CF93C82F0E94E7
:10164000A306C0FF04C084B3806284BB03C084B31C
:101650008F7D84BBC1FF04C08EB188608EB903C08A
:101660008EB1877F8EB9C2FF06C0E2E0F1E08081D3
:101670008860808305C0E2E0F1E08081877F80831D
:10168000C3FF06C0E2E0F1E080818061808305C095
:10169000E2E0F1E080818F7E80830E94060B0E9451
:1016A000C306CF9108950F931F93CF93DF93CDB7C8
:1016B000DEB7AE01485F5F4FDA016D917D91AD01FC
:1016C00007E814E0D8011296ED91FC9113978381FD
:1016D0008860838380E092E00E947117D80112969F
:1016E000ED91FC9113978381877F8383DF91CF9165
:1016F0001F910F910895CF93C82F0E94A306E2E097
:10170000F1E080818F7D80838C2F82958F700E9485
:101710001D0B8C2F0E941D0B85ED8A95F1F70000A3
:101720000E94C306CF9108950E94A306E1E0F1E074
:101730008081886780838DB188608DB983B3806232
:1017400083BB80B3816080BB81B38E7F81BB2FEF71
:1017500080E792E0215080409040E1F700C0000017
:1017600083E00E941D0B8FE19EE40197F1F700C01A
:10177000000083E00E941D0B8FE193E00197F1F7D9
:1017800000C0000083E00E941D0B8FE193E00197F1
:10179000F1F700C0000082E00E941D0B88E20E9469
:1017A0007B0B8CE00E947B0B81E00E947B0B86E030
:1017B0000E947B0B8FE19EE40197F1F700C00000CF
:1017C0000E94C30608950E94A3061092820481E03D
:1017D0000E947B0B8FE39FE10197F1F700C00000AF
:1017E0000E94C30608958CE00E947B0B089588E058
:1017F0000E947B0B0895CF93DF93D82FC62F8230A2
:1018000008F0D1E00E94A3068C2F90E4D99F800DB0
:10181000112480680E947B0B80E1D89FC00D1124A9
:10182000C09382040E94C306DF91CF910895CF93A5
:10183000C82F0E94A306E2E0F1E0808180628083ED
:101840008C2F82958F700E941D0B8C2F0E941D0B78
:1018500085ED8A95F1F700000E94C306CF910895A7
:1018600060E080E00E94FB0B089560E081E00E9450
:10187000FB0B0895CF93C82F0E94A306CA3031F402
:10188000809182048071805F8093820480918204C1
:10189000803119F40E94350C06C0803221F40E9478
:1018A000E30B0E94300C8C2F90E0FC01E458F1090E
:1018B000E034F105D8F48827EE58FF4F8F4F0C9491
:1018C0005317CFEE13C0C5EF11C0C2EE0FC0CFEE5D
:1018D0000DC0C5EF0BC0CFED09C0C4EE07C00E941C
:1018E000C3060EC00E94C3060BC0C1EE8C2F0E941F
:1018F000170C809182048F5F809382040E94C3063C
:10190000CF9108950E943A0C80E090E008950F93E3
:101910001F93CF93DF93EC010E94A30603C00E94A4
:101920003A0CE8018E010F5F1F4FFE018491811177
:10193000F6CF0E94C306DF91CF911F910F910895BA
:10194000FC012185928581E0291380E00895CF93E1
:10195000DF93EC010E94A00C882341F08DE293E01C
:101960009F938F930E940D060F900F909985292FBA
:1019700030E0FE01E20FF31F80812F5F3F4F2930DF
:10198000310514F49F5F01C090E09987DF91CF91FA
:101990000895FC01228530E02F5F3F4F293031054B
:1019A00014F020E030E0FC01418550E081E0241794
:1019B000350709F080E008951F93CF93DF93EC0182
:1019C000162F0E94C90C882341F08EE493E09F9368
:1019D0008F930E940D060F900F902A85822F90E022
:1019E000FE01E80FF91F10830196099714F42F5F89
:1019F00001C020E02A87DF91CF911F910895FC015B
:101A0000118612860895FC01218530E032C0DF0185
:101A1000A20FB31F5C91561324C018C0B9016F5FA9
:101A20007F4F693071051CF0A0E0B0E001C0DB0120
:101A3000AE0FBF1F5C91DF01A20FB31F5C93693033
:101A400071051CF020E030E001C09B012817390728
:101A500029F7442311F0415001C048E0428781E05A
:101A60000895C901019620E030E0893091050CF419
:101A70009C014285842F90E02817390741F680E0C9
:101A800008951F920F920FB60F9211248F939F9378
:101A9000AF93BF938091370290913802A0913902A1
:101AA000B0913A029058AF4FBF4F80933702909356
:101AB0003802A0933902B0933A02BF91AF919F913F
:101AC0008F910F900FBE0F901F901895E1E8F0E0F6
:101AD00080818E7F808380818D7F808380818B7FDA
:101AE00080830895109280001092850010928400E7
:101AF00081E090E09093890080938800EFE6F0E029
:101B00008081816080830E94660D08950E94A306F3
:101B100083E090E09093D5008093D400E0EDF0E076
:101B200080818D7F8083E1EDF0E080818061808322
:101B30008081886080830E94C30608959091D000C0
:101B400095FFFCCF8093D60008950F931F93CF93FA
:101B5000DF938C010E94A306D0E00FC0F801ED0FC7
:101B6000F11DC491CA3019F48DE00E949E0DCC2362
:101B700031F08C2F0E949E0DDF5FDF3F79F70E94CE
:101B8000C306DF91CF911F910F9108950E94860D9A
:101B90008EE092E090938A048093890408958A30BD
:101BA00020F4805D0E949E0D0895895C0E949E0D28
:101BB0000895CF93C82F0E94A3068C2F82958F7013
:101BC0000E94CF0D8C2F8F700E94CF0D0E94C306F4
:101BD000CF910895CF93DF93C82FD92F0E94A306EA
:101BE0008D2F0E94D90D8C2F0E94D90D0E94C30603
:101BF000DF91CF910895CF93C82F8A3019F48DE0EB
:101C00000E949E0D8C2F0E949E0DCF9108950E94E0
:101C1000A50D0895CF93C82F0E94A3068C2F0E9474
:101C2000FB0DCA3021F48DE693E00E94070E0E945E
:101C3000C30680E090E0CF9108958AE00E94FB0DFA
:101C400008950F931F93CF93DF93CDB7DEB70E9414
:101C5000A306888599850E94070E07E814E0D8013D
:101C60001296ED91FC911397838188608383AE0176
:101C7000445F5F4F6A857B8512968D919C91139787
:101C80000E947117D8011296ED91FC9113978381F0
:101C9000877F83830E941D0E0E94C306DF91CF9130
:101CA0001F910F9108951F920F920FB60F9211245A
:101CB0000BB60F922F938F939F93EF93FF93809187
:101CC000C0002091C6008C71E0910C04EF5F9091F0
:101CD0000B04E91739F0E0930C04F0E0E15FFB4FEF
:101CE000208301C082E090910A04892B80930A042A
:101CF000FF91EF919F918F912F910F900BBE0F90BD
:101D00000FBE0F901F9018951F920F920FB60F9253
:101D100011240BB60F928F939F93EF93FF939091A3
:101D20000E0480910D04981761F0E0910D04EF5FAF
:101D3000E0930D04F0E0E15FFB4F80818093C600EB
:101D400005C0E1ECF0E080818F7D8083FF91EF9111
:101D50009F918F910F900BBE0F900FBE0F901F9011
:101D600018951F920F920FB60F9211240BB60F9277
:101D70002F938F939F93EF93FF938091C8002091AF
:101D8000CE008C71E091C702EF5F9091C602E91717
:101D900039F0E093C702F0E0E653FD4F208301C025
:101DA00082E09091C502892B8093C502FF91EF914B
:101DB0009F918F912F910F900BBE0F900FBE0F90A0
:101DC0001F9018951F920F920FB60F9211240BB609
:101DD0000F928F939F93EF93FF939091C9028091FD
:101DE000C802981769F0E091C802EF5FEF73E093C3
:101DF000C802F0E0E653FC4F80818093CE0005C01E
:101E0000E9ECF0E080818F7D8083FF91EF919F91DD
:101E10008F910F900BBE0F900FBE0F901F901895D3
:101E20001F920F920FB60F9211240BB60F922F93A1
:101E30008F939F93EF93FF938091D0002091D600D2
:101E40008C71E091C202EF5F9091C102E91739F005
:101E5000E093C202F0E0EB53FD4F208301C082E02B
:101E60009091C002892B8093C002FF91EF919F91C6
:101E70008F912F910F900BBE0F900FBE0F901F9060
:101E800018951F920F920FB60F9211240BB60F9256
:101E90008F939F93EF93FF939091C4028091C3021D
:101EA000981761F0E091C302EF5FE093C302F0E0A6
:101EB000EB53FD4F80818093D60005C0E1EDF0E04B
:101EC00080818F7D8083FF91EF919F918F910F9003
:101ED0000BBE0F900FBE0F901F9018951F920F9280
:101EE0000FB60F9211240BB60F922F938F939F93DF
:101EF000EF93FF9380913001209136018C71E09136
:101F00003D02EF5FEF7390913C02E91739F0E093E7
:101F10003D02F0E0E05CFD4F208301C082E0909143
:101F20003B02892B80933B02FF91EF919F918F9110
:101F30002F910F900BBE0F900FBE0F901F90189512
:101F40001F920F920FB60F9211240BB60F928F9320
:101F50009F93EF93FF9390913F0280913E029817D9
:101F600069F0E0913E02EF5FEF73E0933E02F0E034
:101F7000E058FD4F80818093360105C0E1E3F1E038
:101F800080818F7D8083FF91EF919F918F910F9042
:101F90000BBE0F900FBE0F901F9018951F920F92BF
:101FA0000FB60F9211248F939F93AF93BF9380919D
:101FB000830490918404A0918504B09186040196D5
:101FC000A11DB11D8093830490938404A093850484
:101FD000B0938604BF91AF919F918F910F900FBEE8
:101FE0000F901F9018951092830410928404109201
:101FF00085041092860485B5816085BD85B58260B3
:1020000085BD85B58B7F85BD84B5826084BD89EF34
:1020100087BDEEE6F0E080818260808308950FB690
:1020200007FC18C0A99B16C085B3826085BB809150
:10203000830490918404A0918504B0918604019654
:10204000A11DB11D8093830490938404A093850403
:10205000B09386048FB7282F221F2227221FF894BF
:10206000609183047091840480918504909186042A
:10207000222309F078940895CF92DF92EF92FF9295
:102080000F931F93CF93DF930097E1F0EC010E9431
:102090000F106B017C0106C08FE891E00197F1F70A
:1020A00000C000000E940F10DC01CB018C199D09BB
:1020B000AE09BF098E0120E030E080179107A2072A
:1020C000B30750F3DF91CF911F910F91FF90EF90E5
:1020D000DF90CF900895CF93DF93CDB7DEB79F8188
:1020E00028858E8181110DC0AE01475F5F4F5F93E0
:1020F0004F932F939F930E940D060F900F900F9078
:102100000F90DF91CF9108950895FC01808108958B
:10211000FC0160830895E0911C02F0911D02199565
:102120000895EF92FF920F931F93CF93DF93E6E210
:10213000F2E0E280F38006811781C0E0D0E00DC0BC
:10214000E0912602F09127020480F581E02D60E005
:10215000CE018E0D9F1D19952196C017D10780F3D2
:10216000DF91CF911F910F91FF90EF900895811112
:1021700003C086E292E0089580E090E0089581E057
:1021800090E008950F931F93CF93DF930E94BF10A9
:102190008C01C0E0D0E006C08C2F0E94B7100E94D6
:1021A00091102196C017D107B8F3DF91CF911F91FD
:1021B0000F910895FF920F931F93CF93DF93DC014C
:1021C00014962D913C9115976217730708F43FC040
:1021D0001896ED91FC911997E20FF31F6E177F0788
:1021E000B0F5F42EEC01621B730B0A811B81CB014D
:1021F00096958795080F191F60FD16C0E881F98133
:102200000280F381E02DC8011995B0E1FB9EA00189
:1022100011248F70682F642BE881F9810480F58187
:10222000E02DC801199513C0E881F9810280F3817E
:10223000E02DC8011995807F4F2D4F70682F642BBA
:10224000E881F9810480F581E02DC8011995DF91BD
:10225000CF911F910F91FF900895FC01248135814A
:102260006217730728F140855185420F531F641789
:10227000750700F5621B730B22813381CB019695A4
:102280008795820F931F60FD0AC00190F081E02DB9
:102290000280F381E02D199582958F700895019049
:1022A000F081E02D0280F381E02D19958F70089563
:1022B00080E0089580E008950F931F93CF93DF93FC
:1022C0008C01EB0101C02197F801848195818C1765
:1022D0009D0730F4BE01C8010E942D118F3099F383
:1022E000CE01DF91CF911F910F910895CF93DF938E
:1022F000EC010E945C11BC01CE010E942D11DF9106
:10230000CF910895EF92FF920F931F93CF93DF9396
:102310008C010E945C11EC01BC01C8010E942D11CE
:102320008823E1F02196EE24E394F12C04C08FEF92
:10233000E81AF80A2196F801248135818085918573
:10234000820F931FC817D90760F4BE01C8010E940D
:102350002D118F3061F38E2D9F2D05C080E090E010
:1023600002C08E2D9F2DDF91CF911F910F91FF9075
:10237000EF900895CF92DF92EF92FF920F931F9309
:10238000CF93DF938C01EB01D42E0E94A306BE01F4
:10239000C8010E945C117C01BC01C8010E94761139
:1023A000882311F08D1519F00E94C30615C0B701DE
:1023B000C8010E9482116C01C0E0D0E008C0BE01DB
:1023C0006E0D7F1D40E0C8010E94DA102196CC15E9
:1023D000DD05A8F30E94C306DF91CF911F910F91F5
:1023E000FF90EF90DF90CF900895CF92DF92EF9221
:1023F000FF920F931F93CF93DF936C017B010E9499
:10240000A306E114F10429F40E94C30680E090E0E1
:1024100049C0F60182858230B9F028F4882341F062
:10242000813061F023C08330A9F08430C9F01EC030
:10243000B701C6010E94C3128C011AC0B701C601C0
:102440000E94C9128C0114C0B701C6010E94E41297
:102450008C010EC0B701C6010E9444138C0108C054
:10246000B701C6010E94C3128C0102C000E010E057
:102470000115110599F00E948806482FB801C60180
:102480000E94DA10C1E0D0E006C04FE0B801C601FA
:102490000E94DA102196CE15DF05B8F30E94C3061C
:1024A000802F912FDF91CF911F910F91FF90EF908F
:1024B000DF90CF9008950F931F93CF93DF93EC019C
:1024C0008B010E948806482FB801CE010E94BA11E4
:1024D000DF91CF911F910F910895FC0162870895BC
:1024E0008F929F92AF92BF92CF92DF92EF92FF9224
:1024F0000F931F93CF93DF937C016B015A01FC0173
:102500000481158180859185080F191F27C0B501A9
:10251000C7010E942D11882331F018C0FFEF8F1AD8
:102520009F0A219603C0E501812C912CC017D10789
:1025300048F4BE01C7010E942D11811103C08C1403
:102540009D0460F38C149D0441F40EC0B501C701D5
:102550000E948211E501C80FD91F5E01A016B106C5
:10256000B0F280E090E002C08A2D9B2DDF91CF91E8
:102570001F910F91FF90EF90DF90CF90BF90AF90A1
:102580009F908F900895FC01448155810E947012A4
:1025900008950F931F93CF93DF93EC018B014B852D
:1025A0005C850E947012009731F44C815D81B80106
:1025B000CE010E947012009711F09C878B87DF91EB
:1025C000CF911F910F9108954F925F926F927F92DA
:1025D0008F929F92AF92BF92CF92DF92EF92FF9233
:1025E0000F931F93CF93DF937C015B01FC01C480A9
:1025F000D580008511850C0D1D1D88248A94982C8A
:10260000412C512C2BC0B601C7010E942D118823EB
:1026100031F018C02196FFEF6F1A7F0A03C0360110
:10262000C0E0D0E06016710630F4B301C7010E942B
:102630002D11882379F3CA15DB0578F0C815D90563
:1026400048F00BC0B601C7010E9482113601680E26
:10265000791E03C04E014C2C5D2C6301C016D106BF
:1026600090F2842D952DDF91CF911F910F91FF90C6
:10267000EF90DF90CF90BF90AF909F908F907F9022
:102680006F905F904F9008954F925F926F927F92FC
:102690008F929F92AF92BF92CF92DF92EF92FF9272
:1026A0000F931F93CF93DF937C015B01FC01C480E8
:1026B000D580008511850C0D1D1D812C912C412C80
:1026C000512C2BC0B601C7010E942D11882331F077
:1026D00018C02196FFEF6F1A7F0A03C03601C0E0D1
:1026E000D0E06016710630F4B301C7010E942D11CD
:1026F000882379F3CA15DB0578F08C169D0648F01F
:102700000BC0B601C7010E9482113601680E791E06
:1027100003C04E014C2C5D2C6301C016D10690F213
:10272000842D952DDF91CF911F910F91FF90EF9008
:10273000DF90CF90BF90AF909F908F907F906F90E1
:102740005F904F90089581E00E94820629E534E170
:10275000FC013183208380915F049091600482604A
:102760009093600480935F04089582E00E94820643
:1027700026E337E1FC01318320830895DF92EF9255
:10278000FF920F931F93CF93DF9383E893E00E9410
:10279000070E00E010E07DC080E893E00E94070E85
:1027A00080912802909129027801F694E7948E0D89
:1027B0009F1D0E94EA0D80E20E94FB0DC0E02AC02E
:1027C0008C2F90E0A801480F591F20912E023091C4
:1027D0002F024217530728F08BE793E00E94070E61
:1027E00018C0E0912802F0912902EE0DFF1DE80FBC
:1027F000F91FD0818D2F82958F700E94CF0D80E2BE
:102800000E94FB0D8D2F8F700E94CF0D80E20E94E1
:10281000FB0DCF5FC830A0F286E793E00E94070E61
:1028200080912A0290912B02800F911F0E94EA0D45
:1028300080E20E94FB0DD12C24C0CD2DD0E00F2EC4
:10284000F6E2EF2EF2E0FF2EF02DD7011496ED9177
:10285000FC911597E00FF11FEC0FFD1F80810E9486
:10286000D90D80E20E94FB0D81E090E00E943C10B7
:10287000C00FD11FF70180859185C817D90721F0B6
:10288000D394FFE0FD15C8F60D0D111D8AE00E94DE
:10289000FB0D80912E0290912F020817190708F462
:1028A0007BCFDF91CF911F910F91FF90EF90DF9041
:1028B000089585E99AE09F938F938CE89AE09F931F
:1028C0008F930E94210E8CE79AE00E94870C0E9451
:1028D000350C8BE69AE00E94870C8FE39AE09F9379
:1028E0008F9386E39AE09F938F930E94210E83E05B
:1028F0008F9388EE8F938DE19AE09F938F9384E17D
:102900009AE09F938F930E94210EC6E2D2E02A8123
:102910003B814E815F81C901840F951F5F934F9367
:1029200001979F938F933F932F9388EE99E09F9306
:102930008F938FED99E09F938F930E94210E2C81AE
:102940003D8148855985C901840F951F5F934F9339
:1029500001979F938F933F932F9383EB99E09F93DE
:102960008F938AEA99E09F938F930E94210E0DB76F
:102970001EB70E5D1F4F0FB6F8941EBF0FBE0DBFE2
:102980008EE799E09F938F9385E799E09F938F93CC
:102990000E94210E1F921F9282E18F931F9283E566
:1029A00099E09F938F938AE499E09F938F930E947D
:1029B000210E8DB79EB70C960FB6F8949EBF0FBE32
:1029C0008DBFC7E032C0AC2F0C2E000CBB0B24EE29
:1029D00031E00E945B172FE131E240E050E07901E5
:1029E0008A01E61AF70A080B190BD801C701BF9331
:1029F000AF939F93EF928C2F0C2E000C990B9F930B
:102A0000CF9387E299E09F938F938EE199E09F9314
:102A10008F930E94210EC1500DB71EB7065F1F4F46
:102A20000FB6F8941EBF0FBE0DBF1C1664F21F92A6
:102A30001F92C1E2CF938FE18F938CEF98E09F9329
:102A40008F9383EF98E09F938F930E94210E1F92A4
:102A50001F92CF938FED8F9381ED98E09F938F938B
:102A600088EC98E09F938F930E94210E1F921F92F3
:102A7000CF938FEF8F9386EA98E09F938F938DE9A2
:102A800098E09F938F930E94210E81E798E09F9397
:102A90008F9388E698E09F938F930E94210E60E0C9
:102AA00086E292E00E946D128CEA9AE09F938F93E7
:102AB00085E498E09F938F938CE398E09F938F93A6
:102AC0000E94210E8DB79EB782960FB6F8949EBFD6
:102AD0000FBE8DBF80E198E09F938F9387E098E0D1
:102AE0009F938F930E94210E84E00E94F40A84E059
:102AF0000E94FD0A80EF97E09F938F9387EE97E007
:102B00009F938F930E94210E0E94BE1384EC97E046
:102B10009F938F938BEB97E09F938F930E94210E4F
:102B200084E00E94F40A84E00E94FD0A0DB71EB7FB
:102B3000045F1F4F0FB6F8941EBF0FBE0DBF61E0BC
:102B400082E00E946507C82F8F3F41F48BE997E030
:102B50009F938F930E940D060F900F901F92CF931B
:102B600081E797E09F938F9388E697E09F938F93F9
:102B70000E94210E0F900F900F900F900F900F90CA
:102B800002C00E941F090E948B068330D0F71F925B
:102B9000CF9380E197E09F938F9387E097E09F9397
:102BA0008F930E94210E0E94BE1385ED96E09F93A5
:102BB0008F938CEC96E09F938F930E94210E84E07C
:102BC0000E94F40A84E00E94FD0A8DB79EB70A961F
:102BD0000FB6F8949EBF0FBE8DBFB1CFEF92FF929C
:102BE0000F931F93CF93DF938C011F938F9381E8F3
:102BF00096E09F938F9388E796E09F938F930E9430
:102C0000210EB80186E292E00E94F5117C018BE56D
:102C100096E09F938F9382E596E09F938F930E9417
:102C2000210E0E94BE138DB79EB70A960FB6F89478
:102C30009EBF0FBE8DBFE114F10421F58CE396E039
:102C40009F938F9383E396E09F938F930E94210E2F
:102C500086EF95E09F938F938DEE95E09F938F93F2
:102C60000E94210E84E00E94F40A84E00E94FD0A82
:102C70008DB79EB708960FB6F8949EBF0FBE8DBF56
:102C800080E0EDC0FF92EF928BEC95E09F938F93E5
:102C900082EC95E09F938F930E94210EE6E2F2E092
:102CA00084858F9383858F9386EA95E09F938F9396
:102CB0008DE995E09F938F930E94210E88E795E020
:102CC0009F938F938FE695E09F938F930E94210EA1
:102CD00084E00E94F40A84E00E94FD0A1F930F938F
:102CE00082E595E09F938F9389E495E09F938F937E
:102CF0000E94210E8DB79EB746960FB6F8949EBFE0
:102D00000FBE8DBFC0E0D0E00DC0E0912602F09173
:102D100027020480F581E02D6C2FCE018E0D9F1DC2
:102D200019952196C017D10780F381E395E09F9311
:102D30008F9388E295E09F938F930E94210E0E94CB
:102D4000BE1386E195E09F938F938DE095E09F936E
:102D50008F930E94210E8EEE94E09F938F9385EEC9
:102D600094E09F938F930E94210E88EB94E09F93B1
:102D70008F938FEA94E09F938F930E94210E82E7B6
:102D800094E09F938F9389E694E09F938F930E94A2
:102D9000210E8DB79EB744960FB6F8949EBF0FBE16
:102DA0008DBF83E00E94DF0A811109C00E94DF0A03
:102DB000811105C082E00E94DF0A882391F383E03D
:102DC0000E94DF0A8823C9F1FF92EF921F930F93AD
:102DD0008AE394E09F938F9381E394E09F938F9392
:102DE0000E94210EB70186E292E00E945B1287E109
:102DF00094E09F938F938EE094E09F938F930E9433
:102E0000210E0E94BE138DEE93E09F938F9384EE6C
:102E100093E09F938F930E94210E84E00E94F40A16
:102E200084E00E94FD0A8DB79EB740960FB6F894D5
:102E30009EBF0FBE8DBFC1E008C082E00E94DF0AC6
:102E4000811102C0C1E001C0C0E083E00E94FD0A20
:102E500080E00E94FD0A82E00E94FD0A8C2FDF9133
:102E6000CF911F910F91FF90EF900895CF93DF9333
:102E7000C0E2D0E0CE010E94EE15882319F0CC0FFD
:102E8000DD1FF8CF8AEA96E09F938F9381EA96E060
:102E90009F938F930E94210E0F900F900F900F9091
:102EA000DF91CF910895EE0FFF1F881F8BBF079012
:102EB000F691E02D19940E946217B7FF0895821BC6
:102EC000930B0895A29FB001B39FC001A39F700D03
:102ED000811D1124911DB29F700D811D1124911D22
:102EE0000895CF93DF93EC018B8188608B83CE01B3
:102EF0000E9480172B81277F2B83DF91CF9108952C
:102F00002F923F924F925F926F927F928F929F92F9
:102F1000AF92BF92CF92DF92EF92FF920F931F93E7
:102F2000CF93DF93CDB7DEB72B970FB6F894DEBF04
:102F30000FBECDBF6C017B018A01FC011782168296
:102F4000838181FFCCC1CE0101963C01F6019381C2
:102F5000F70193FD859193FF81917F01882309F407
:102F6000BAC1853239F493FD859193FF81917F0138
:102F7000853229F4B60190E00E94A019E7CF912C88
:102F8000212C312CFFE1F315D8F08B3279F038F495
:102F9000803279F08332A1F4232D20611DC08D325F
:102FA00061F0803369F4232D216016C0832D826087
:102FB000382EE32DE4603E2E2AC0F32DF8601DC0AC
:102FC00037FC2DC020ED280F2A3040F08E32B9F4A6
:102FD00036FC81C1232D2064322E19C036FE06C076
:102FE0008AE0989E200D1124922E11C0EAE02E9EB8
:102FF000200D1124222EF32DF0623F2E08C08C36B6
:1030000021F4832D8068382E02C0883641F4F70100
:1030100093FD859193FF81917F018111B3CF982F0B
:103020009F7D9554933028F40C5F1F4F9FE3998345
:103030000DC0833631F0833771F0833509F059C004
:1030400021C0F801808189830E5F1F4F88248394FB
:10305000912C530113C02801F2E04F0E511CF801CE
:10306000A080B18036FE03C0692D70E002C06FEF12
:103070007FEFC5010E9495194C018201F32DFF7766
:103080003F2E16C0280122E0420E511CF801A080FC
:10309000B18036FE03C0692D70E002C06FEF7FEF94
:1030A000C5010E948A194C01F32DF0683F2E820160
:1030B00033FC1BC0822D90E088169906B0F4B6014F
:1030C00080E290E00E94A0192A94F4CFF50137FC29
:1030D000859137FE81915F01B60190E00E94A019B1
:1030E00021102A9421E0821A91088114910471F729
:1030F000E8C0843611F0893641F5F80137FE07C083
:1031000060817181828193810C5F1F4F08C0608153
:103110007181072E000C880B990B0E5F1F4FF32D4A
:10312000FF763F2E97FF09C0909580957095619529
:103130007F4F8F4F9F4FF0683F2E2AE030E0A30172
:103140000E94DC19882E861845C0853731F4232D5E
:103150002F7EB22E2AE030E025C0932D997FB92E24
:103160008F36C1F018F4883579F0B5C0803719F082
:10317000883721F0B0C0E92FE061BE2EB4FE0DC04B
:10318000FB2DF460BF2E09C034FE0AC0292F266033
:10319000B22E06C028E030E005C020E130E002C0D9
:1031A00020E132E0F801B7FE07C0608171818281C1
:1031B00093810C5F1F4F06C06081718180E090E0B9
:1031C0000E5F1F4FA3010E94DC19882E8618FB2D6D
:1031D000FF773F2E36FE0DC0232D2E7FA22E8914A1
:1031E00058F434FE0BC032FC09C0832D8E7EA82E0D
:1031F00005C0B82CA32C03C0B82C01C0B92CA4FE68
:103200000FC0FE01E80DF11D8081803321F49A2D5D
:10321000997EA92E09C0A2FE06C0B394B39404C03F
:103220008A2D867809F0B394A3FC11C0A0FE06C0D5
:10323000B21488F4280C922C9B180EC0B21460F4BF
:10324000B60180E290E00E94A019B394F7CFB214C7
:1032500018F42B1802C0982C212CA4FE10C0B60123
:1032600080E390E00E94A019A2FE17C0A1FC03C059
:1032700088E790E002C088E590E0B6010CC08A2D96
:10328000867859F0A1FE02C08BE201C080E2A7FC63
:103290008DE2B60190E00E94A019891438F4B601BD
:1032A00080E390E00E94A0199A94F7CF8A94F301EA
:1032B000E80DF11D8081B60190E00E94A0198110F7
:1032C000F5CF222009F442CEB60180E290E00E94C0
:1032D000A0192A94F6CFF6018681978102C08FEF5C
:1032E0009FEF2B960FB6F894DEBF0FBECDBFDF91D8
:1032F000CF911F910F91FF90EF90DF90CF90BF90F3
:10330000AF909F908F907F906F905F904F903F9085
:103310002F900895FC010590615070400110D8F77E
:10332000809590958E0F9F1F0895FC01615070400D
:1033300001900110D8F7809590958E0F9F1F0895EA
:103340000F931F93CF93DF93FB01238121FD03C0D4
:103350008FEF9FEF2CC022FF16C04681578124813A
:1033600035814217530744F4A081B1819D012F5F3D
:103370003F4F318320838C93268137812F5F3F4FCE
:103380003783268314C08B01EC01FB010084F18597
:10339000E02D1995892BE1F6D80116968D919C9117
:1033A0001797019617969C938E931697CE01DF91EF
:1033B000CF911F910F910895FA01AA27283051F15A
:1033C000203181F1E8946F936E7F6E5F7F4F8F4F56
:1033D0009F4FAF4FB1E03ED0B4E03CD0670F781FB5
:1033E000891F9A1FA11D680F791F8A1F911DA11D9A
:1033F0006A0F711D811D911DA11D20D009F46894D3
:103400003F912AE0269F11243019305D3193DEF67A
:10341000CF010895462F4770405D4193B3E00FD030
:10342000C9F7F6CF462F4F70405D4A3318F0495D1B
:1034300031FD4052419302D0A9F7EACFB4E0A695FE
:103440009795879577956795BA95C9F70097610520
:10345000710508959B01AC010A2E06945795479576
:1034600037952795BA95C9F7620F731F841F951F6B
:08347000A01D0895F894FFCFA0
:103478000000000200000000820C000000000000B4
:103488000002000000000A0E0000000084108510F1
:103498008810000200201C02E805F0090804100842
:0434A80000F0090027
:00000001FF
