:100000000C942E040C945F040C945F040C945F0415
:100010000C945F040C945F040C945F040C945F04D4
:100020000C945F040C945F040C945F040C945F04C4
:100030000C945F040C94FD060C945F040C945F0414
:100040000C945F040C94850B0C945F040C945F0477
:100050000C945F040C94C70E0C945F040C945F0422
:100060000C945F040C944C0D0C947D0D0C945F0467
:100070000C945F040C945F040C945F040C945F0474
:100080000C945F040C945F040C945F040C945F0464
:100090000C94AA0D0C94DB0D0C945F040C945F047B
:1000A0000C945F040C945F040C945F040C945F0444
:1000B0000C945F040C945F040C945F040C945F0434
:1000C0000C945F040C945F040C945F040C94090E70
:1000D0000C943A0E0C945F040C94670E0C94990ED9
:1000E0000C945F04B90ABA0ABA0ABA0ABA0ABA0A76
:1000F000BA0ABA0ABA0ABA0ABA0ABA0ABA0ABA0AE0
:10010000BA0ABA0ABA0ABA0AAB0ABA0ABA0ABA0ADE
:10011000BA0ABA0AAD0ABA0ABA0AA90ABA0ABA0ADD
:10012000BA0ABA0AB90ABA0ABA0ABA0ABA0ABA0AB0
:10013000BA0ABA0ABA0ABA0ABA0ABA0AAF0ABA0AAA
:10014000BA0ABA0ABA0AB10AA50ABA0ABA0ABA0AAD
:10015000BA0ABA0AA70ABA0ABA0ABA0ABA0ABA0A92
:10016000B30AB60A0C94B30A0C9486120C94B10A22
:100170000C94C60A0C94A50A0C949E100C94B90A0F
:100180000C94BA0A0C94A70A0C94030D0C94AF0AB1
:100190000C94A90A0C947D0F0C9415050C949A05E7
:1001A0000C94AD0A0C94B60A0C94AB0A0C948F1202
:1001B0000C9416085B4552524F525D200048656111
:1001C0007020636F6C6C6964657320776974682054
:1001D000676C6F62616C2076617273002D2D2D2D1E
:1001E0002D2D2D2D2D2D2D2D2D2D2D2D2D2D2D2D3F
:1001F0002D2D2D2D2D2D2D2D2D2D2D2D2D2D2D2D2F
:100200002D2D2D2D2D2D2D2D2D2D2D2D2D2D0A006E
:100210005B494E464F5D2020005573656420676C36
:100220006F62616C20766172733A2025642F2564B9
:10023000206279746573005B494E464F5D20200053
:10024000426F6F74696E6720454F53202E2E2E002B
:100250000A0A2323232323232323232323232323A0
:10026000232323232323232323232323232323235E
:10027000232323232323232323232323232323234E
:10028000232323230A00426F6F74696E6720454F52
:1002900053202E2E2E0052756E6E657220766F6E74
:1002A000206D65696D2053706569636865722C20E7
:1002B000416C6C6572210054686572652069732019
:1002C0006E6F2069646C652070726F630053746197
:1002D000636B2D43726173682100537461636B20FB
:1002E0006F7574206F66204261756E747A00437278
:1002F00069742E2053656374696F6E202020756EBB
:10030000646572666C6F7700437269742E20536562
:100310006374696F6E2020206F766572666C6F77EC
:100320000043616E277420706F702066726F6D20BD
:10033000656D707479207265616479207175657579
:10034000650043616E27742070757368206F6E209E
:1003500066756C6C20726561647920717565756570
:100360000053746F7020776174636820756E6465E4
:1003700072666C6F770053746F7020776174636876
:1003800020696E7374616E636573206F7665726643
:100390006C6F77002020202020202020002564255D
:1003A00063202564005B494E464F5D202000546564
:1003B0007374636173652036207C2044796E616DAF
:1003C0006963205072696F7269747920526F756E1B
:1003D0006420526F62696E207C20382070726F63D7
:1003E00065737365732020202020202020207C202E
:1003F0006E6F726D616C2020202020207C20746F35
:100400006F6B20256C75206F66206D61782E20251E
:1004100064206D6963726F7365636F6E6473202D02
:10042000202573005B494E464F5D202000546573C4
:1004300074636173652035207C20526F756E642073
:10044000526F62696E202020202020202020202052
:10045000202020202020207C20382070726F6365AF
:10046000737365732020202020202020207C206EA4
:100470006F726D616C2020202020207C20746F6FB3
:100480006B20256C75206F66206D61782E202564A9
:10049000206D6963726F7365636F6E6473202D20C6
:1004A0002573005B494E464F5D20200054657374F0
:1004B000636173652034207C2044796E616D6963CB
:1004C000205072696F7269747920526F756E642062
:1004D000526F62696E207C20322070726F63657388
:1004E0007365732020202020202020207C20686538
:1004F000617679202020202020207C20746F6F6B73
:1005000020256C75206F66206D61782E2025642073
:100510006D6963726F7365636F6E6473202D202540
:1005200073005B494E464F5D202000546573746331
:100530006173652033207C20526F756E6420526F8A
:1005400062696E20202020202020202020202020D2
:1005500020202020207C20322070726F636573730E
:1005600065732020202020202020207C20686561C9
:100570007679202020202020207C20746F6F6B2033
:10058000256C75206F66206D61782E202564206DA6
:100590006963726F7365636F6E6473202D202573BA
:1005A000005B494E464F5D202000546573746361C3
:1005B00073652032207C2044796E616D6963205020
:1005C00072696F7269747920526F756E6420526F10
:1005D00062696E207C20322070726F636573736570
:1005E000732020202020202020207C206E6F726D20
:1005F000616C2020202020207C20746F6F6B2025D0
:100600006C75206F66206D61782E202564206D69E1
:1006100063726F7365636F6E6473202D20257300A2
:100620005B494E464F5D20200054657374636173CF
:10063000652031207C20526F756E6420526F626994
:100640006E2020202020202020202020202020205C
:100650002020207C20322070726F63657373657375
:100660002020202020202020207C206E6F726D61B1
:100670006C2020202020207C20746F6F6B20256C44
:1006800075206F66206D61782E202564206D69636A
:10069000726F7365636F6E6473202D202573005B2A
:1006A000494E464F5D2020002D2D2D2D2D2D2D2D19
:1006B0002D2D2D7C2D2D2D2D2D2D2D2D2D2D2D2D1B
:1006C0002D2D2D2D2D2D2D2D2D2D2D2D2D2D2D2D5A
:1006D0002D2D7C2D2D2D2D2D2D2D2D2D2D2D2D2DFB
:1006E0002D2D2D2D2D2D2D2D7C2D2D2D2D2D2D2DEB
:1006F0002D2D2D2D2D2D7C2D2D2D2D2D2D2D2D2DDB
:100700002D2D2D2D2D2D2D2D2D2D2D2D2D2D2D2D19
:100710002D2D2D2D2D2D2D2D2D2D2D2D2D2D2D2D09
:100720002D2D2D2D2D2D2D005B494E464F5D20206A
:100730000054657374636173652020207C204465D8
:10074000736372697074696F6E20202020202020EE
:1007500020202020202020202020207C204E756D6D
:10076000626572206F662070726F63657373657364
:10077000207C20537461636B207573616765207CF6
:1007800020526573756C74005B494E464F5D2020A6
:1007900000005B494E464F5D202000546573742075
:1007A000726573756C743A2025642F256420746516
:1007B0007374636173657320706173736564005B48
:1007C000494E464F5D2020000020205445535420C0
:1007D0004641494C45442020200020205445535494
:1007E00020504153534544202020005B494E464F42
:1007F0005D20200057656C636F6D6520746F2074F9
:1008000065737463617365203521005B494E464F03
:100810005D20200052756E6E696E6720737461678B
:10082000652033005B494E464F5D20200052756EB7
:100830006E696E672073746167652032005B494E94
:10084000464F5D20200052756E6E696E672073748E
:100850006167652031009A0586128F1211241FBE30
:10086000CFEFD1E2DEBFCDBF00E00CBF12E0A0E0D1
:10087000B2E0ECE2FBE200E00BBF02C007900D9299
:10088000AE32B107D9F724E0AEE2B2E001C01D926A
:10089000A03AB207E1F714E0CEE2D4E000E006C0EF
:1008A00021970109802FFE010E94C312CB32D1078C
:1008B00080E00807A9F70E9461040C9494150C9439
:1008C00000000E94870488E592E00E94350F0E9494
:1008D000270A0E94AC0581E090E00895E0EBF0E08B
:1008E000808182608083E1EBF0E08081846080839E
:1008F000808182608083808181608083E0E7F0E096
:100900008081826080838CE38093B30008950E948D
:10091000EC0E0E946E040E94C20B0E94D8090E9435
:10092000EB0C0E943E090E94370A0E94270A86E8C3
:1009300092E00E94CB0A80E592E00E94000D80E4E4
:1009400092E09F938F9387E392E09F938F930E940F
:100950001A0D83E08F9388EE8F9380EA92E09F9345
:100960008F9389E192E09F938F9380E192E09F9330
:100970008F930E941A0D8CED91E00E94000D8DEB7B
:1009800091E09F938F9381E020EA34E0283E354048
:1009900008F080E08F930E94640F0E949C068DB740
:1009A0009EB70F960FB6F8949EBF0FBE8DBF0895E9
:1009B000CF93DF93CDB7DEB71E810F81F8948FEF11
:1009C00091E29EBF8DBF0E94270ACE0108969F9399
:1009D0008F930F931F930E949709CE0108969F93C0
:1009E0008F930F931F9384EB91E09F938F930E94BB
:1009F0001A0D0FB6F894DEBF0FBECDBF0E94370AA6
:100A00009FEF2DE389E4915020408040E1F700C042
:100A100000000E943B0A9FEF21EE84E091502040AD
:100A20008040E1F700C00000E9CF8EE20E947E0A1C
:100A300084E690E00E94350FF8CFBC01990F880B37
:100A4000990B089521E030E002C0220F331F8A95F0
:100A5000E2F780915A0490915B042823392381E0C6
:100A6000232B09F480E00895803148F4E82FF0E06A
:100A7000EE0FFF1FE65CFB4F80819181089580E0BF
:100A800090E0089590E0880F991F865C9B4F089531
:100A9000809130020895CF93C82F0E949C08C09384
:100AA0002F02CF91089580912F020895CF93CFB751
:100AB000CC1FCC27CC1FF89480912E028F3F49F495
:100AC00088E093E09F938F930E94D8040F900F903B
:100AD00003C08F5F80932E02E0E7F0E080818D7F7E
:100AE0008083CC2309F07894CF910895CF93CFB72A
:100AF000CC1FCC27CC1FF89480912E02811109C005
:100B00008EEE92E09F938F930E94D8040F900F90E7
:100B100003C0815080932E0280912E02811105C066
:100B2000E0E7F0E0808182608083CC2309F0789454
:100B3000CF91089580E00E94420525E135E0FC0157
:100B40003183208380915A0490915B04816090935B
:100B50005B0480935A04089510923002EAE0F4E0B6
:100B600082E08183828193819EBF8DBF0F901F9011
:100B70002F903F904F905F906F907F908F909F90BD
:100B8000AF90BF90CF90DF90EF90FF900F911F91AB
:100B90002F913F914F915F916F917F918F919F9195
:100BA000AF91BF91CF91DF91EF91FF91FFBFFF9187
:100BB000189586E992E09F938F930E94D8040F9036
:100BC0000F90089590E044EE51E0849F9001859F3E
:100BD000300D949F300D11246FE171E2621B730B95
:100BE000FC01EE0FFF1FE80FF91FEE0FFF1FE65F7E
:100BF000FB4F82819381DB01A81BB90BB295A295B3
:100C0000AF70AB27BF70AB2720E030E080E00CC0B6
:100C1000A29FA001A39F500D1124FB01E41BF50B23
:100C2000908189272F5F3F4F203131058CF3089544
:100C3000FF920F931F93CF93DF93C82FD62F0E945D
:100C4000560580E090E00FC0FC01EE0FFF1FE80F9B
:100C5000F91FEE0FFF1FE65FFB4F2181211102C03C
:100C6000F82E06C001968830910574F3FF24FA949B
:100C70008FEFF81203C00E94760557C08C2F0E9498
:100C80003405892B19F40E9476054FC00F2D10E012
:100C9000F801EE0FFF1FE00FF11FEE0FFF1FE65FE1
:100CA000FB4F81E08183D483C0830E9453056F2D65
:100CB0000E94650824EE31E0029FC001039F900D61
:100CC000129F900D1124EFE1F1E2EF01C81BD90B47
:100CD00086E198E00E941D056883FE01729382936D
:100CE000319780E090E003C0108231970196813205
:100CF0009105D4F3E801CC0FDD1FDE01A00FB11F79
:100D0000AA0FBB1FA65FBB4F1396FC93EE931297DF
:100D10008F2D0E94E205FE01E00FF11FEE0FFF1F75
:100D2000E65FFB4F85830E9476058F2DDF91CF9183
:100D30001F910F91FF900895CF9380E090E00BC03A
:100D4000FC01EE0FFF1FE80FF91FEE0FFF1FE65F1C
:100D5000FB4F118201968830910594F30E94530550
:100D60000E949C0820913A0430913B0487EB92E06A
:100D70009F938F9381E0232B09F480E08F930E944F
:100D8000640F0F900F900F90C0E00AC08C2F0E944C
:100D90002205882321F061E08C2F0E941806CF5F86
:100DA000C031A0F3CF91089590E0FC01EE0FFF1F3A
:100DB000E80FF91FEE0FFF1FE65FFB4F62817381A3
:100DC00024EE31E0829FA001839F500D929F500D31
:100DD00011248FE191E2841B950B2BE33FE1241B4F
:100DE000350B8617970728F02617370720F080E085
:100DF000089580E0089581E00895FF93FFB7FF9381
:100E0000EF93DF93CF93BF93AF939F938F937F9392
:100E10006F935F934F933F932F931F930F93FF9283
:100E2000EF92DF92CF92BF92AF929F928F927F927A
:100E30006F925F924F923F922F921F9211240F92C6
:100E40008091300290E02DB73EB7FC01EE0FFF1FFE
:100E5000E80FF91FEE0FFF1FE65FFB4F338322837E
:100E60008FED91E29EBF8DBF10913002C12FD0E077
:100E7000FE01EE0FFF1FEC0FFD1FEE0FFF1FE65FE1
:100E8000FB4F8181823059F4FE01EE0FFF1FEC0F02
:100E9000FD1FEE0FFF1FE65FFB4F81E08183812F77
:100EA0000E94D406811109C08AED92E09F938F932E
:100EB0000E94D8040F900F900DC0812F0E94E20570
:100EC0009E01220F331FC20FD31FCC0FDD1FC65F41
:100ED000DB4F8D830E945305811109C06091300260
:100EE0008AE094E00E9446088093300208C0609136
:100EF00030028AE094E00E94D4088093300280910E
:100F00003002282F30E0F901EE0FFF1FE20FF31F30
:100F1000EE0FFF1FE65FFB4FC5810E94E205C81779
:100F200041F08DEC92E09F938F930E94D8040F9034
:100F30000F908091300290E0FC01EE0FFF1FDF0167
:100F4000A80FB91FAA0FBB1FA65FBB4F22E01196C7
:100F50002C931197FD01828193819EBF8DBF0F90CD
:100F60001F902F903F904F905F906F907F908F9049
:100F70009F90AF90BF90CF90DF90EF90FF900F9138
:100F80001F912F913F914F915F916F917F918F9121
:100F90009F91AF91BF91CF91DF91EF91FF91FFBFF3
:100FA000FF91189580912E02811105C01092B20018
:100FB000F8940E94FD060895CF93C82F0E9456050D
:100FC0008FEF8C0F873070F48C2F90E0FC01EE0FC8
:100FD000FF1FE80FF91FEE0FFF1FE65FFB4F218198
:100FE000211104C00E94760580E01EC0FC01EE0FB6
:100FF000FF1FE80FF91FEE0FFF1FE65FFB4F118287
:101000000E9453056C2F0E9465080E944805C81372
:1010100008C081E080932E020E9476050E94D207CC
:10102000FFCF0E94760581E0CF9108950E94480588
:10103000C82F90E0FC01EE0FFF1FE80FF91FEE0F25
:10104000FF1FE65FFB4F80810E943405FC0119956C
:101050008C2F0E94DC070E94D207FFCFAC0191E0E9
:101060000FC0292F30E0F901EE0FFF1FE20FF31F31
:10107000EE0FFF1FE40FF51F2181213029F09F5F44
:10108000983078F380E0089581E00895DC0140E035
:1010900050E014C06F5F962F977071F0292F30E0E9
:1010A000F901EE0FFF1FE20FF31FEE0FFF1FEA0F14
:1010B000FB1F2181213039F04F5F5F4F48305105D0
:1010C0004CF380E00895892F0895CF93DF9381300A
:1010D00081F5D62FC0E00AC02BE0C29FC0011124C9
:1010E0006D2F845A9B4F0E94470BCF5FC330A0F3F4
:1010F0008D2F90E0FC01EE0FFF1FE80FF91FEE0FA0
:10110000FF1FE65FFB4F2181213099F4FC01EE0FB8
:10111000FF1FE80FF91FEE0FFF1FE65FFB4F8481F3
:101120002BE0829FC00111246D2F845A9B4F0E9497
:10113000200BDF91CF910895CF93813099F5C0E0D6
:1011400009C02BE0C29FC0011124845A9B4F0E940A
:10115000430BCF5FC330A8F3C1E022C08C2F90E0D7
:10116000FC01EE0FFF1FE80FF91FEE0FFF1FE65FF8
:10117000FB4F2181213099F4FC01EE0FFF1FE80F96
:10118000F91FEE0FFF1FE65FFB4F84812BE0829F6C
:10119000C00111246C2F845A9B4F0E94200BCF5FFB
:1011A000C830E0F2CF9108951F93CF93DF93EC0105
:1011B000162F0E942E08882309F459C087E694E070
:1011C0000E94E40A811109C087E694E00E94EB0ABC
:1011D000682F8CE594E00E94200B82E794E00E9447
:1011E000E40A811109C082E794E00E94EB0A682FAB
:1011F00087E694E00E94200B1123C1F0812F90E03C
:101200009C01220F331F820F931F880F991FC80F55
:10121000D91F8981813051F48C812BE0829FC001DC
:101220001124612F845A9B4F0E94200B8CE594E07F
:101230000E94E40A811105C08CE594E00E94EB0A4B
:1012400019C087E694E00E94E40A811105C087E690
:1012500094E00E94EB0A0EC082E794E00E94E40A48
:10126000811107C082E794E00E94EB0A03C080E08E
:1012700001C080E0DF91CF911F91089580B38E7FF0
:1012800080BBECE7F0E080818064808387E8809316
:101290007A0008950E945605E2E0F1E080818064C2
:1012A000808385E08A95F1F7000080818F7B8083C1
:1012B0008FE891E00197F1F700C000000E947605E9
:1012C0000895CF93C82F0E945605C0FF04C084B371
:1012D000806284BB03C084B38F7D84BBC1FF04C024
:1012E0008EB188608EB903C08EB1877F8EB9C2FF80
:1012F00006C0E2E0F1E080818860808305C0E2E022
:10130000F1E08081877F8083C3FF06C0E2E0F1E0E7
:1013100080818061808305C0E2E0F1E080818F7E82
:1013200080830E944A090E947605CF9108950F9309
:101330001F93CF93DF93CDB7DEB7AE01485F5F4F0A
:10134000DA016D917D91AD010AE914E0D8011296A0
:10135000ED91FC91139783818860838380E092E014
:101360000E94CB12D8011296ED91FC9113978381C4
:10137000877F8383DF91CF911F910F910895CF9342
:10138000C82F0E945605E2E0F1E080818F7D8083C6
:101390008C2F82958F700E9461098C2F0E946109A9
:1013A00085ED8A95F1F700000E947605CF910895AA
:1013B0000E945605E1E0F1E08081886780838DB16D
:1013C00088608DB983B3806283BB80B3816080BB4A
:1013D00081B38E7F81BB2FEF80E792E02150804068
:1013E0009040E1F700C0000083E00E9461098FE1B6
:1013F0009EE40197F1F700C0000083E00E946109BC
:101400008FE193E00197F1F700C0000083E00E94B4
:1014100061098FE193E00197F1F700C0000082E0DD
:101420000E94610988E20E94BF098CE00E94BF0906
:1014300081E00E94BF0986E00E94BF098FE19EE41F
:101440000197F1F700C000000E94760508950E9400
:10145000560510927D0481E00E94BF098FE39FE151
:101460000197F1F700C000000E94760508958CE016
:101470000E94BF09089588E00E94BF090895CF9394
:10148000DF93D82FC62F823008F0D1E00E94560596
:101490008C2F90E4D99F800D112480680E94BF0991
:1014A00080E1D89FC00D1124C0937D040E94760571
:1014B000DF91CF910895CF93C82F0E945605E2E0A7
:1014C000F1E08081806280838C2F82958F700E94F2
:1014D00061098C2F0E94610985ED8A95F1F7000062
:1014E0000E947605CF91089560E080E00E943F0A57
:1014F000089560E081E00E943F0A0895CF93C82FCD
:101500000E945605CA3031F480917D048071805F5D
:1015100080937D0480917D04803119F40E94790AC2
:1015200006C0803221F40E94270A0E94740A8C2F80
:1015300090E0FC01E458F109E034F105D8F4882783
:10154000EE58FF4F8F4F0C94C312CFEE13C0C5EF70
:1015500011C0C2EE0FC0CFEE0DC0C5EF0BC0CFED76
:1015600009C0C4EE07C00E9476050EC00E94760531
:101570000BC0C1EE8C2F0E945B0A80917D048F5FAF
:1015800080937D040E947605CF9108950E947E0A83
:1015900080E090E008950F931F93CF93DF93EC01C9
:1015A0000E94560503C00E947E0AE8018E010F5F6B
:1015B0001F4FFE0184918111F6CF0E947605DF91C5
:1015C000CF911F910F910895FC012185928581E0B3
:1015D000291380E00895CF93DF93EC010E94E40A81
:1015E000882341F081E293E09F938F930E94D80477
:1015F0000F900F909985292F30E0FE01E20FF31F25
:1016000080812F5F3F4F2930310514F49F5F01C067
:1016100090E09987DF91CF910895FC01228530E019
:101620002F5F3F4F2930310514F020E030E0FC01FE
:10163000418550E081E02417350709F080E00895E6
:101640001F93CF93DF93EC01162F0E940D0B88237D
:1016500041F082E493E09F938F930E94D8040F900F
:101660000F902A85822F90E0FE01E80FF91F10836A
:101670000196099714F42F5F01C020E02A87DF91BB
:10168000CF911F910895FC01118612860895FC01E7
:10169000218530E032C0DF01A20FB31F5C915613E9
:1016A00024C018C0B9016F5F7F4F693071051CF00D
:1016B000A0E0B0E001C0DB01AE0FBF1F5C91DF0115
:1016C000A20FB31F5C93693071051CF020E030E07D
:1016D00001C09B012817390729F7442311F0415015
:1016E00001C048E0428781E00895C901019620E0E9
:1016F00030E0893091050CF49C014285842F90E004
:101700002817390741F680E008951F920F920FB60F
:101710000F9211248F939F93AF93BF9380913102C7
:1017200090913202A0913302B09134029058AF4FA1
:10173000BF4F8093310290933202A0933302B09353
:101740003402BF91AF919F918F910F900FBE0F9078
:101750001F901895E1E8F0E080818E7F8083808182
:101760008D7F808380818B7F80830895E1E8F0E026
:1017700080818E7F808380818260808380818B7F67
:10178000808308951092800010928500109284004A
:1017900081E090E09093890080938800EFE6F0E08C
:1017A0008081816080830E94AA0B08950FB607FC98
:1017B00018C0B09B16C086B3816086BB8091310291
:1017C00090913202A0913302B09134029058AF4F01
:1017D000BF4F8093310290933202A0933302B093B3
:1017E0003402E4E8F0E020813181808191818170D0
:1017F0009927918380833695279580913102909126
:101800003202A0913302B0913402820F931FA11DC6
:10181000B11D8093310290933202A0933302B093B2
:1018200034028FB7282F221F2227221FF89460919D
:10183000310270913202809133029091340222235E
:1018400009F078940895CF92DF92EF92FF920E9470
:101850005605809135028F3F41F486E793E09F93D0
:101860008F930E94D8040F900F90809135028F5F64
:1018700080933502813089F486B3826086BB1092F2
:1018800031021092320210923302109234021092FE
:101890008500109284000E94B60B0E94D60B6B014B
:1018A0007C010E947605C701B601FF90EF90DF90A2
:1018B000CF900895CF92DF92EF92FF920F931F93F4
:1018C0006B017C010E94D60BDC01CB018C199D09B8
:1018D000AE09BF0900910E0210910F022091100273
:1018E00030911102BC01CD01601B710B820B930B77
:1018F0001F910F91FF90EF90DF90CF900895CF92BE
:10190000DF92EF92FF926B017C010E945605C701A6
:10191000B6010E945A0C6B017C0180913502811145
:1019200008C081E693E09F938F930E94D8040F90A4
:101930000F9080913502815080933502811102C051
:101940000E94AA0B0E947605C701B601FF90EF9096
:10195000DF90CF9008950E94560583E090E0909329
:10196000D5008093D400E0EDF0E080818D7F80830E
:10197000E1EDF0E0808180618083808188608083F8
:101980000E94760508959091D00095FFFCCF80933A
:10199000D60008950F931F93CF93DF938C010E947D
:1019A0005605D0E00FC0F801ED0FF11DC491CA300B
:1019B00019F48DE00E94C30CCC2331F08C2F0E94CF
:1019C000C30CDF5FDF3F79F70E947605DF91CF918F
:1019D0001F910F9108950E94AB0C82E192E09093C9
:1019E0009D0480939C040895CF93C82F8A3019F4E6
:1019F0008DE00E94C30C8C2F0E94C30CCF910895E0
:101A00000E94CA0C0895CF93C82F0E9456058C2FB0
:101A10000E94F40CCA3021F484E993E00E94000D86
:101A20000E94760580E090E0CF9108958AE00E94C0
:101A3000F40C08950F931F93CF93DF93CDB7DEB7C8
:101A40000E945605888599850E94000D0AE914E0D8
:101A5000D8011296ED91FC9113978381886083835E
:101A6000AE01445F5F4F6A857B8512968D919C9194
:101A700013970E94CB12D8011296ED91FC91139707
:101A80008381877F83830E94160D0E947605DF91F4
:101A9000CF911F910F9108951F920F920FB60F9241
:101AA00011240BB60F922F938F939F93EF93FF9375
:101AB0008091C0002091C6008C71E0910704EF5F17
:101AC00090910604E91739F0E0930704F0E0E65F2F
:101AD000FB4F208301C082E090910504892B809305
:101AE0000504FF91EF919F918F912F910F900BBE65
:101AF0000F900FBE0F901F9018951F920F920FB668
:101B00000F9211240BB60F928F939F93EF93FF9335
:101B10009091090480910804981761F0E0910804FD
:101B2000EF5FE0930804F0E0E65FFB4F8081809375
:101B3000C60005C0E1ECF0E080818F7D8083FF91DD
:101B4000EF919F918F910F900BBE0F900FBE0F9052
:101B50001F9018951F920F920FB60F9211240BB67B
:101B60000F922F938F939F93EF93FF938091C800D1
:101B70002091CE008C71E091C202EF5F9091C10282
:101B8000E91739F0E093C202F0E0EB53FD4F2083F8
:101B900001C082E09091C002892B8093C002FF9126
:101BA000EF919F918F912F910F900BBE0F900FBED1
:101BB0000F901F9018951F920F920FB60F9211243D
:101BC0000BB60F928F939F93EF93FF939091C40264
:101BD0008091C302981769F0E091C302EF5FEF7341
:101BE000E093C302F0E0EB53FC4F80818093CE0082
:101BF00005C0E9ECF0E080818F7D8083FF91EF915B
:101C00009F918F910F900BBE0F900FBE0F901F9062
:101C100018951F920F920FB60F9211240BB60F92C8
:101C20002F938F939F93EF93FF938091D0002091F8
:101C3000D6008C71E091BD02EF5F9091BC02E91774
:101C400039F0E093BD02F0E0E054FD4F208301C085
:101C500082E09091BB02892B8093BB02FF91EF91B0
:101C60009F918F912F910F900BBE0F900FBE0F90F1
:101C70001F9018951F920F920FB60F9211240BB65A
:101C80000F928F939F93EF93FF939091BF02809158
:101C9000BE02981761F0E091BE02EF5FE093BE02D2
:101CA000F0E0E054FD4F80818093D60005C0E1ED67
:101CB000F0E080818F7D8083FF91EF919F918F91E4
:101CC0000F900BBE0F900FBE0F901F9018951F9294
:101CD0000F920FB60F9211240BB60F922F938F9382
:101CE0009F93EF93FF9380913001209136018C7187
:101CF000E0913802EF5FEF7390913702E91739F006
:101D0000E0933802F0E0E55CFD4F208301C082E003
:101D100090913602892B80933602FF91EF919F912B
:101D20008F912F910F900BBE0F900FBE0F901F90B1
:101D300018951F920F920FB60F9211240BB60F92A7
:101D40008F939F93EF93FF9390913A028091390282
:101D5000981769F0E0913902EF5FEF73E093390271
:101D6000F0E0E558FD4F80818093360105C0E1E346
:101D7000F1E080818F7D8083FF91EF919F918F9122
:101D80000F900BBE0F900FBE0F901F9018951F92D3
:101D90000F920FB60F9211248F939F93AF93BF931F
:101DA00080917E0490917F04A0918004B091810481
:101DB0000196A11DB11D80937E0490937F04A09392
:101DC0008004B0938104BF91AF919F918F910F9048
:101DD0000FBE0F901F90189510927E0410927F04F2
:101DE000109280041092810485B5816085BD85B50F
:101DF000826085BD85B58B7F85BD84B5826084BDDD
:101E000089EF87BDEEE6F0E08081826080830895EF
:101E10000FB607FC18C0A99B16C085B3826085BBAE
:101E200080917E0490917F04A0918004B091810400
:101E30000196A11DB11D80937E0490937F04A09311
:101E40008004B09381048FB7282F221F2227221FDE
:101E5000F89460917E0470917F0480918004909149
:101E60008104222309F078940895CF92DF92EF92B3
:101E7000FF920F931F93CF93DF930097E1F0EC0154
:101E80000E94080F6B017C0106C08FE891E001976A
:101E9000F1F700C000000E94080FDC01CB018C1993
:101EA0009D09AE09BF098E0120E030E0801791073F
:101EB000A207B30750F3DF91CF911F910F91FF90CD
:101EC000EF90DF90CF900895CF93DF93CDB7DEB73B
:101ED0009F8128858E8181110DC0AE01475F5F4FC4
:101EE0005F934F932F939F930E94D8040F900F906E
:101EF0000F900F90DF91CF9108950E94D207FDCFF0
:101F0000F894E1EBF0E080818B7F808380818D7F8E
:101F1000808380818E7F8083789408958F929F92B2
:101F2000AF92BF92CF92DF92EF92FF92CF93C0E039
:101F3000C12CD12C76010FC00E94230C4B015C01F7
:101F40000E94D207C501B4010E947F0CC60ED71EA5
:101F5000E81EF91ECF5FC43678F3C701B60124E648
:101F600030E040E050E00E94A112CA01B901CF91D7
:101F7000FF90EF90DF90CF90BF90AF909F908F90A9
:101F80000895CF93DF9386E498E09F938F938DE33A
:101F900098E09F938F930E941A0D80E00E944B055A
:101FA0000E948E0FC2E8D4E0688379838A839B8382
:101FB00081E00E944B050E948E0F6C837D838E838F
:101FC0009F830F900F900F900F90DF91CF91089506
:101FD0000F931F93CF93DF93CDB7DEB7C456D14095
:101FE0000FB6F894DEBF0FBECDBF8DE298E09F9391
:101FF0008F9384E298E09F938F930E941A0DFE01C5
:10200000319684E691E0DF019C011D922150304021
:10201000E1F78A81898380E00E944B050E948E0F40
:1020200002E814E0D80118966D937D938D939C93EC
:102030001B9781E00E944B050E948E0FF801648778
:102040007587868797870F900F900F900F90CC59C8
:10205000DE4F0FB6F894DEBF0FBECDBFDF91CF913C
:102060001F910F910895EF92FF920F931F93CF93BB
:10207000DF9300D000D0CDB7DEB784E198E09F9326
:102080008F938BE098E09F938F930E941A0D0F908F
:102090000F900F900F9010E00EC0E12EF12C60E039
:1020A00082E00E941806E1E0F0E0EC0FFD1FEE0D6B
:1020B000FF1D80831F5F163080F380E00E944B0578
:1020C0000E948E0F27E030E040E050E00E94A11215
:1020D00002E814E0F801208B318B428B538B81E0B6
:1020E0000E944B050E948E0FDC01CB01689412F810
:1020F000B695A795979587951694D1F7F801848B97
:10210000958BA68BB78B10E00AC0E1E0F0E0EC0FF6
:10211000FD1FE10FF11D80810E94DC071F5F16305B
:10212000A0F326960FB6F894DEBF0FBECDBFDF91A9
:10213000CF911F910F91FF90EF9008950E94800F13
:1021400084EF97E09F938F938BEE97E09F938F930D
:102150000E941A0D0E94C10F0E94E80F0E943310C6
:102160000F900F900F900F9080E0C0E013C0E82F09
:10217000F0E0EE0FFF1FEE0FFF1FEE57FB4F408109
:10218000518162817381493C51056105710508F4F3
:10219000CF5F8F5F863058F30E94270AC63049F41C
:1021A0008AED97E09F938F930E9497090F900F906D
:1021B00008C089EC97E09F938F930E9497090F9036
:1021C0000F9088EC97E09F938F938FEB97E09F930E
:1021D0008F930E941A0D1F9286E08F931F92CF93C8
:1021E0008BE997E09F938F9382E997E09F938F937A
:1021F0000E941A0D81E997E09F938F9388E897E0FA
:102200009F938F930E941A0D81E397E09F938F9382
:1022100088E297E09F938F930E941A0D88EA96E0D8
:102220009F938F938FE996E09F938F930E941A0D4F
:102230008091820490918304A0918404B0918504DC
:102240002DB73EB7285E3F4F0FB6F8943EBF0FBE86
:102250002DBF893C9105A105B10518F420E232E0BB
:1022600002C027E232E03F932F931F9228EC2F9376
:10227000BF93AF939F938F9389E296E09F938F9341
:1022800080E296E09F938F930E941A0D80918604BE
:1022900090918704A0918804B09189042DB73EB72E
:1022A000245F3F4F0FB6F8943EBF0FBE2DBF893C51
:1022B0009105A105B10518F420E232E002C027E241
:1022C00032E03F932F931F9228EC2F93BF93AF934D
:1022D0009F938F938AEA95E09F938F9381EA95E08D
:1022E0009F938F930E941A0D80918A0490918B0482
:1022F000A0918C04B0918D042DB73EB7245F3F4F61
:102300000FB6F8943EBF0FBE2DBF893C9105A105C5
:10231000B10518F420E232E002C027E232E03F9338
:102320002F931F9228EC2F93BF93AF939F938F937C
:102330008BE295E09F938F9382E295E09F938F933A
:102340000E941A0D80918E0490918F04A0919004A8
:10235000B09191042DB73EB7245F3F4F0FB6F8946C
:102360003EBF0FBE2DBF893C9105A105B10518F4F4
:1023700020E232E002C027E232E03F932F931F9227
:1023800028EC2F93BF93AF939F938F938CEA94E0A5
:102390009F938F9383EA94E09F938F930E941A0DEB
:1023A0008091920490919304A0919404B09195042B
:1023B0002DB73EB7245F3F4F0FB6F8943EBF0FBE18
:1023C0002DBF893C9105A105B10518F420E232E04A
:1023D00002C027E232E03F932F931F9228EC2F9305
:1023E000BF93AF939F938F938DE294E09F938F93CE
:1023F00084E294E09F938F930E941A0D809196043B
:1024000090919704A0919804B09199042DB73EB78C
:10241000245F3F4F0FB6F8943EBF0FBE2DBF893CDF
:102420009105A105B10518F420E232E002C027E2CF
:1024300032E03F932F931F9228EC2F93BF93AF93DB
:102440009F938F938EEA93E09F938F9385EA93E017
:102450009F938F930E941A0D88EE93E00E94350F90
:102460008DB79EB70C960FB6F8949EBF0FBE8DBF6A
:102470000E94270AC0E042C0C1FB662760F9660FD0
:10248000660F660F8C2F81700E943F0A8C2F90E0A0
:10249000FC01EE0FFF1FEE0FFF1FEE57FB4F4081B9
:1024A000518162817381493C51056105710510F0CC
:1024B00026E401C020E57F936F935F934F931F92B3
:1024C0002F9301969F938F938DE993E09F938F9322
:1024D0000E9497092DB73EB7265F3F4F0FB6F8947D
:1024E0003EBF0FBE2DBF8C2F8370833031F488EB3D
:1024F0009BE00E94350F0E94270ACF5FC63008F488
:10250000BBCF88EB9BE00E94350FB2CF82E00E94E8
:1025100042052DE73FE0FC0131832083089581E0EF
:102520000E9442052EE930E1FC0131832083809135
:102530005A0490915B04826090935B0480935A04E8
:102540000895A1E21A2EAA1BBB1BFD010DC0AA1FF4
:10255000BB1FEE1FFF1FA217B307E407F50720F00C
:10256000A21BB30BE40BF50B661F771F881F991F87
:102570001A9469F760957095809590959B01AC01D0
:10258000BD01CF010895EE0FFF1F881F8BBF07907D
:10259000F691E02D1994CF93DF93EC018B81886045
:1025A0008B83CE010E94DA122B81277F2B83DF9150
:1025B000CF9108952F923F924F925F926F927F92A8
:1025C0008F929F92AF92BF92CF92DF92EF92FF9243
:1025D0000F931F93CF93DF93CDB7DEB72B970FB633
:1025E000F894DEBF0FBECDBF6C017B018A01FC01F8
:1025F00017821682838181FFCCC1CE0101963C01F6
:10260000F6019381F70193FD859193FF81917F01FD
:10261000882309F4BAC1853239F493FD859193FF7B
:1026200081917F01853229F4B60190E00E94FA146D
:10263000E7CF912C212C312CFFE1F315D8F08B3210
:1026400079F038F4803279F08332A1F4232D2061BF
:102650001DC08D3261F0803369F4232D216016C0D6
:10266000832D8260382EE32DE4603E2E2AC0F32DA8
:10267000F8601DC037FC2DC020ED280F2A3040F037
:102680008E32B9F436FC81C1232D2064322E19C05C
:1026900036FE06C08AE0989E200D1124922E11C0AD
:1026A000EAE02E9E200D1124222EF32DF0623F2E03
:1026B00008C08C3621F4832D8068382E02C08836FD
:1026C00041F4F70193FD859193FF81917F01811181
:1026D000B3CF982F9F7D9554933028F40C5F1F4FF4
:1026E0009FE399830DC0833631F0833771F08335D2
:1026F00009F059C021C0F801808189830E5F1F4F06
:1027000088248394912C530113C02801F2E04F0ECA
:10271000511CF801A080B18036FE03C0692D70E025
:1027200002C06FEF7FEFC5010E94EF144C018201E0
:10273000F32DFF773F2E16C0280122E0420E511CD8
:10274000F801A080B18036FE03C0692D70E002C0A0
:102750006FEF7FEFC5010E94E4144C01F32DF06888
:102760003F2E820133FC1BC0822D90E08816990613
:10277000B0F4B60180E290E00E94FA142A94F4CFFB
:10278000F50137FC859137FE81915F01B60190E03C
:102790000E94FA1421102A9421E0821A91088114CF
:1027A000910471F7E8C0843611F0893641F5F801DB
:1027B00037FE07C060817181828193810C5F1F4F5A
:1027C00008C060817181072E000C880B990B0E5F89
:1027D0001F4FF32DFF763F2E97FF09C090958095F0
:1027E000709561957F4F8F4F9F4FF0683F2E2AE085
:1027F00030E0A3010E943615882E861845C0853723
:1028000031F4232D2F7EB22E2AE030E025C0932D07
:10281000997FB92E8F36C1F018F4883579F0B5C09C
:10282000803719F0883721F0B0C0E92FE061BE2E63
:10283000B4FE0DC0FB2DF460BF2E09C034FE0AC0EB
:10284000292F2660B22E06C028E030E005C020E126
:1028500030E002C020E132E0F801B7FE07C060813D
:102860007181828193810C5F1F4F06C060817181ED
:1028700080E090E00E5F1F4FA3010E943615882E66
:102880008618FB2DFF773F2E36FE0DC0232D2E7FA1
:10289000A22E891458F434FE0BC032FC09C0832DDB
:1028A0008E7EA82E05C0B82CA32C03C0B82C01C066
:1028B000B92CA4FE0FC0FE01E80DF11D808180330C
:1028C00021F49A2D997EA92E09C0A2FE06C0B394C8
:1028D000B39404C08A2D867809F0B394A3FC11C088
:1028E000A0FE06C0B21488F4280C922C9B180EC0CF
:1028F000B21460F4B60180E290E00E94FA14B3943E
:10290000F7CFB21418F42B1802C0982C212CA4FE77
:1029100010C0B60180E390E00E94FA14A2FE17C036
:10292000A1FC03C088E790E002C088E590E0B60112
:102930000CC08A2D867859F0A1FE02C08BE201C03E
:1029400080E2A7FC8DE2B60190E00E94FA1489149F
:1029500038F4B60180E390E00E94FA149A94F7CF1D
:102960008A94F301E80DF11D8081B60190E00E9488
:10297000FA148110F5CF222009F442CEB60180E28C
:1029800090E00E94FA142A94F6CFF601868197818E
:1029900002C08FEF9FEF2B960FB6F894DEBF0FBEED
:1029A000CDBFDF91CF911F910F91FF90EF90DF90FE
:1029B000CF90BF90AF909F908F907F906F905F90DF
:1029C0004F903F902F900895FC010590615070400A
:1029D0000110D8F7809590958E0F9F1F0895FC01E8
:1029E0006150704001900110D8F7809590958E0F3E
:1029F0009F1F08950F931F93CF93DF93FB012381B4
:102A000021FD03C08FEF9FEF2CC022FF16C046812F
:102A10005781248135814217530744F4A081B18145
:102A20009D012F5F3F4F318320838C932681378117
:102A30002F5F3F4F3783268314C08B01EC01FB01CE
:102A40000084F185E02D1995892BE1F6D8011696C1
:102A50008D919C911797019617969C938E9316973C
:102A6000CE01DF91CF911F910F910895FA01AA270E
:102A7000283051F1203181F1E8946F936E7F6E5FC1
:102A80007F4F8F4F9F4FAF4FB1E03ED0B4E03CD06F
:102A9000670F781F891F9A1FA11D680F791F8A1F52
:102AA000911DA11D6A0F711D811D911DA11D20D0B9
:102AB00009F468943F912AE0269F11243019305D73
:102AC0003193DEF6CF010895462F4770405D419364
:102AD000B3E00FD0C9F7F6CF462F4F70405D4A33B1
:102AE00018F0495D31FD4052419302D0A9F7EACF79
:102AF000B4E0A6959795879577956795BA95C9F7A8
:102B000000976105710508959B01AC010A2E06949A
:102B10005795479537952795BA95C9F7620F731F53
:0C2B2000841F951FA01D0895F894FFCF9E
:102B2C000000000200000000C60A000000000A00BD
:102B3C0000000000000200000000030D0000000077
:0E2B4C00504153534544004641494C45440016
:00000001FF
