:100000000C945E020C948F020C948F020C948F025D
:100010000C948F020C948F020C948F020C948F021C
:100020000C948F020C948F020C948F020C948F020C
:100030000C948F020C942C050C948F020C948F025C
:100040000C948F020C94C7090C948F020C948F02AD
:100050000C948F020C94280C0C948F020C948F0239
:100060000C948F020C94AD0A0C94DE0A0C948F024F
:100070000C948F020C948F020C948F020C948F02BC
:100080000C948F020C948F020C948F020C948F02AC
:100090000C940B0B0C943C0B0C948F020C948F0261
:1000A0000C948F020C948F020C948F020C948F028C
:1000B0000C948F020C948F020C948F020C948F027C
:1000C0000C948F020C948F020C948F020C946A0B88
:1000D0000C949B0B0C948F020C94C80B0C94FA0B91
:1000E0000C948F02FB08FC08FC08FC08FC08FC08C8
:1000F000FC08FC08FC08FC08FC08FC08FC08FC08E0
:10010000FC08FC08FC08FC08ED08FC08FC08FC08DE
:10011000FC08FC08EF08FC08FC08EB08FC08FC08DD
:10012000FC08FC08FB08FC08FC08FC08FC08FC08B0
:10013000FC08FC08FC08FC08FC08FC08F108FC08AA
:10014000FC08FC08FC08F308E708FC08FC08FC08AD
:10015000FC08FC08E908FC08FC08FC08FC08FC0892
:10016000F508F8080C94F5080C94DF0C0C94DE0CE0
:100170000C94E20C0C94F3080C9408090C94E70816
:100180000C94FB080C94FC080C94E9080C94621382
:100190000C94640A0C94F1080C94EB080C944C0336
:1001A0000C94C9030C94EF080C94F8080C945D109F
:1001B0000C94ED080C9458065B4552524F525D204A
:1001C000004865617020636F6C6C696465732077AB
:1001D00069746820676C6F62616C2076617273006D
:1001E0002D2D2D2D2D2D2D2D2D2D2D2D2D2D2D2D3F
:1001F0002D2D2D2D2D2D2D2D2D2D2D2D2D2D2D2D2F
:100200002D2D2D2D2D2D2D2D2D2D2D2D2D2D2D2D1E
:100210002D2D0A005B494E464F5D20200055736529
:100220006420676C6F62616C20766172733A20257E
:10023000642F2564206279746573005B494E464FD4
:100240005D202000426F6F74696E6720454F532018
:100250002E2E2E000A0A23232323232323232323A2
:10026000232323232323232323232323232323235E
:10027000232323232323232323232323232323234E
:1002800023232323232323230A00426F6F74696EE1
:100290006720454F53202E2E2E0052756E6E6572CC
:1002A00020766F6E206D65696D2053706569636897
:1002B00065722C20416C6C65722100546865726512
:1002C000206973206E6F2069646C652070726F63A3
:1002D00000537461636B2D43726173682100537422
:1002E00061636B206F7574206F66204261756E7458
:1002F0007A00437269742E2053656374696F6E20AF
:100300002020756E646572666C6F77004372697445
:100310002E2053656374696F6E2020206F7665729E
:10032000666C6F770043616E277420706F70206673
:10033000726F6D20656D70747920726561647920CB
:1003400071756575650043616E27742070757368FB
:10035000206F6E2066756C6C207265616479207107
:10036000756575650020202020202020200043682E
:1003700065636B206661696C656400416C6C207319
:100380007472617465676965732020706173736549
:10039000640053706C2E204E6578742D466974206D
:1003A0004F4B004572726F72204E6578742D46690E
:1003B0007420287370656369616C290053706563EC
:1003C00069616C204E6578742D466974207465737C
:1003D00074004D6170206E6F7420667265652061D7
:1003E00066746572776172647300576F7273742DEF
:1003F000466974204F4B004572726F7220576F72BE
:1004000073742D46697400426573742D46697420B7
:100410004F4B004572726F7220426573742D4669AE
:10042000740046697273742D466974204F4B004501
:1004300072726F722046697273742D466974004E31
:100440006578742D466974204F4B004572726F7247
:10045000204E6578742D46697400436865636B6946
:100460006E672073747261742E004F766572616CD2
:100470006C6F63004D6170206E6F742066726565ED
:1004800000436865636B2073747261746567792ECD
:100490002E004865617020746F6F20736D616C6C05
:1004A00000576F7273740042657374004E65787400
:1004B0000046697273740000C903621311241FBEE1
:1004C000CFEFD1E2DEBFCDBF00E00CBF12E0A0E075
:1004D000B2E0EEE8FCE200E00BBF02C007900D9234
:1004E000A833B107D9F724E0A8E3B2E001C01D9218
:1004F000A139B207E1F712E0CEE5D2E000E006C094
:1005000021970109802FFE010E947413CC35D10779
:1005100080E00807A9F70E9491020C9445160C94FC
:1005200000000E94BC0288E592E00E94960C0E94A6
:1005300069080E94DB0381E090E00895E0EBF0E0C1
:10054000808182608083E1EBF0E080818460808341
:10055000808182608083808181608083E0E7F0E039
:100560008081826080838CE38093B30008950E9431
:10057000E50C0E94230D08950E944D0C0E949E02DE
:100580000E94F8090E941A080E944C0A0E948007E3
:100590000E9479080E9469088AE892E00E940D0989
:1005A00084E592E00E94610A84E492E09F938F9335
:1005B0008BE392E09F938F930E947B0A83E08F935B
:1005C00088EE8F9381E992E09F938F938DE192E083
:1005D0009F938F9384E192E09F938F930E947B0A75
:1005E00080EE91E00E94610A81EC91E09F938F93ED
:1005F00081E021E934E0283E354008F080E08F9327
:100600000E94C50C0E94B7020E94CB048DB79EB712
:100610000F960FB6F8949EBF0FBE8DBF0895CF936F
:10062000DF93CDB7DEB71E810F81F8948FEF91E293
:100630009EBF8DBF0E946908CE0108969F938F933D
:100640000F931F930E94D907CE0108969F938F9313
:100650000F931F9388EB91E09F938F930E947B0AE7
:100660000FB6F894DEBF0FBECDBF0E9479089FEF92
:100670002DE389E4915020408040E1F700C0000064
:100680000E947D089FEF21EE84E091502040804041
:10069000E1F700C00000E9CF8EE20E94C00884E6C6
:1006A00090E00E94960CF8CFBC01990F880B990B33
:1006B000089521E030E002C0220F331F8A95E2F74F
:1006C00080916304909164042823392381E0232BD3
:1006D00009F480E00895803148F4E82FF0E0EE0F4F
:1006E000FF1FED5BFB4F80819181089580E090E0DA
:1006F000089590E0880F991F8D5B9B4F089580911E
:100700003A020895809139020895CF93CFB7CC1F54
:10071000CC27CC1FF894809138028F3F49F48CE0AD
:1007200093E09F938F930E940F030F900F9003C04D
:100730008F5F80933802E0E7F0E080818D7F8083D7
:10074000CC2309F07894CF910895CF93CFB7CC1FE5
:10075000CC27CC1FF89480913802811109C082EF18
:1007600092E09F938F930E940F030F900F9003C00E
:1007700081508093380280913802811105C0E0E7F2
:10078000F0E0808182608083CC2309F07894CF915F
:10079000089580E00E9479032CE433E0FC0131836A
:1007A0002083809163049091640481609093640439
:1007B00080936304089510923A02E3E1F4E082E04A
:1007C0008183828193819EBF8DBF0F901F902F9058
:1007D0003F904F905F906F907F908F909F90AF90E1
:1007E000BF90CF90DF90EF90FF900F911F912F91CE
:1007F0003F914F915F916F917F918F919F91AF91B9
:10080000BF91CF91DF91EF91FF91FFBFFF911895BD
:100810008AE992E09F938F930E940F030F900F90AD
:10082000089590E044EE51E0849F9001859F300D43
:10083000949F300D11246FE171E2621B730BFC0178
:10084000EE0FFF1FE80FF91FEE0FFF1FED5EFB4FCE
:1008500082819381DB01A81BB90BB295A295AF7081
:10086000AB27BF70AB2720E030E080E00CC0A29F38
:10087000A001A39F500D1124FB01E41BF50B9081F7
:1008800089272F5F3F4F203131058CF30895FF9268
:100890000F931F93CF93DF93C82FD62F0E9485030A
:1008A00080E090E00FC0FC01EE0FFF1FE80FF91F82
:1008B000EE0FFF1FED5EFB4F2181211102C0F82ECC
:1008C00006C001968830910574F3FF24FA948FEFE7
:1008D000F81203C00E94A50357C08C2F0E946B031F
:1008E000892B19F40E94A5034FC00F2D10E0F801C9
:1008F000EE0FFF1FE00FF11FEE0FFF1FED5EFB4F2E
:1009000081E08183D483C0830E9482036F2D0E9483
:10091000A70624EE31E0029FC001039F900D129FB5
:10092000900D1124EFE1F1E2EF01C81BD90B88E52E
:1009300096E00E9454036883FE017293829331977C
:1009400080E090E003C010823197019681329105DA
:10095000D4F3E801CC0FDD1FDE01A00FB11FAA0FF9
:10096000BB1FAD5EBB4F1396FC93EE9312978F2D7A
:100970000E941104FE01E00FF11FEE0FFF1FED5E5C
:10098000FB4F85830E94A5038F2DDF91CF911F918F
:100990000F91FF900895CF9380E090E00BC0FC0191
:1009A000EE0FFF1FE80FF91FEE0FFF1FED5EFB4F6D
:1009B000118201968830910594F30E9482030E946F
:1009C000DE0620914304309144048BEB92E09F9328
:1009D0008F9381E0232B09F480E08F930E94C50C54
:1009E0000F900F900F90C0E00AC08C2F0E94590307
:1009F000882321F061E08C2F0E944704CF5FC03133
:100A0000A0F3CF91089590E0FC01EE0FFF1FE80FD7
:100A1000F91FEE0FFF1FED5EFB4F6281738124EE25
:100A200031E0829FA001839F500D929F500D1124B1
:100A30008FE191E2841B950B2BE33FE1241B350BE7
:100A40008617970728F02617370720F080E00895CB
:100A500080E0089581E00895FF93FFB7FF93EF933F
:100A6000DF93CF93BF93AF939F938F937F936F93B6
:100A70005F934F933F932F931F930F93FF92EF92A8
:100A8000DF92CF92BF92AF929F928F927F926F929E
:100A90005F924F923F922F921F9211240F9280915A
:100AA0003A0290E02DB73EB7FC01EE0FFF1FE80FB2
:100AB000F91FEE0FFF1FED5EFB4F338322838FED97
:100AC00091E29EBF8DBF10913A02C12FD0E0FE018E
:100AD000EE0FFF1FEC0FFD1FEE0FFF1FED5EFB4F34
:100AE0008181823059F4FE01EE0FFF1FEC0FFD1FD4
:100AF000EE0FFF1FED5EFB4F81E08183812F0E948F
:100B00000305811109C08EED92E09F938F930E949F
:100B10000F030F900F900DC0812F0E9411049E01B2
:100B2000220F331FC20FD31FCC0FDD1FCD5EDB4F53
:100B30008D830E948203811109C060913A0283E192
:100B400094E00E94880680933A0208C060913A02BD
:100B500083E194E00E94160780933A0280913A0262
:100B6000282F30E0F901EE0FFF1FE20FF31FEE0F09
:100B7000FF1FED5EFB4FC5810E941104C81741F0B5
:100B800081ED92E09F938F930E940F030F900F903F
:100B900080913A0290E0FC01EE0FFF1FDF01A80FE9
:100BA000B91FAA0FBB1FAD5EBB4F22E011962C935D
:100BB0001197FD01828193819EBF8DBF0F901F9081
:100BC0002F903F904F905F906F907F908F909F906D
:100BD000AF90BF90CF90DF90EF90FF900F911F915B
:100BE0002F913F914F915F916F917F918F919F9145
:100BF000AF91BF91CF91DF91EF91FF91FFBFFF9137
:100C0000189580913802811105C01092B200F894B5
:100C10000E942C0508951F93CF93DF93182F0E94F5
:100C200085038FEF810F873070F4812F90E0FC01F6
:100C3000EE0FFF1FE80FF91FEE0FFF1FED5EFB4FDA
:100C40002181211104C00E94A50380E02DC0FC0178
:100C5000EE0FFF1FE80FF91FEE0FFF1FED5EFB4FBA
:100C60001182C0E0D0E007C08C2F0E94180D612FC8
:100C70000E94D00E21960E94200DC817D907A0F31C
:100C80000E948203612F0E94A7060E947F0318130F
:100C900008C081E0809338020E94A5030E940106EB
:100CA000FFCF0E94A50381E0DF91CF911F910895AE
:100CB0000E947F03C82F90E0FC01EE0FFF1FE80F9A
:100CC000F91FEE0FFF1FED5EFB4F80810E946B034B
:100CD000FC0119958C2F0E940B060E940106FFCF84
:100CE000AC0191E00FC0292F30E0F901EE0FFF1F9A
:100CF000E20FF31FEE0FFF1FE40FF51F21812130DC
:100D000029F09F5F983078F380E0089581E008959E
:100D1000DC0140E050E014C06F5F962F977071F0D7
:100D2000292F30E0F901EE0FFF1FE20FF31FEE0F46
:100D3000FF1FEA0FFB1F2181213039F04F5F5F4F0A
:100D4000483051054CF380E00895892F0895CF93E2
:100D5000DF93813081F5D62FC0E00AC02BE0C29F1F
:100D6000C00111246D2F8B599B4F0E948909CF5FC1
:100D7000C330A0F38D2F90E0FC01EE0FFF1FE80FB2
:100D8000F91FEE0FFF1FED5EFB4F2181213099F41B
:100D9000FC01EE0FFF1FE80FF91FEE0FFF1FED5EC6
:100DA000FB4F84812BE0829FC00111246D2F8B5952
:100DB0009B4F0E946209DF91CF910895CF938130BC
:100DC00099F5C0E009C02BE0C29FC00111248B59E6
:100DD0009B4F0E948509CF5FC330A8F3C1E022C0BA
:100DE0008C2F90E0FC01EE0FFF1FE80FF91FEE0FB4
:100DF000FF1FED5EFB4F2181213099F4FC01EE0FC6
:100E0000FF1FE80FF91FEE0FFF1FED5EFB4F848100
:100E10002BE0829FC00111246C2F8B599B4F0E94A5
:100E20006209CF5FC830E0F2CF9108951F93CF934E
:100E3000DF93EC01162F0E947006882309F459C035
:100E400080E794E00E942609811109C080E794E0C0
:100E50000E942D09682F85E694E00E9462098BE7C5
:100E600094E00E942609811109C08BE794E00E945A
:100E70002D09682F80E794E00E9462091123C1F0D8
:100E8000812F90E09C01220F331F820F931F880F48
:100E9000991FC80FD91F8981813051F48C812BE0B3
:100EA000829FC0011124612F8B599B4F0E946209C0
:100EB00085E694E00E942609811105C085E694E04C
:100EC0000E942D0919C080E794E00E942609811133
:100ED00005C080E794E00E942D090EC08BE794E0E6
:100EE0000E942609811107C08BE794E00E942D091A
:100EF00003C080E001C080E0DF91CF911F91089591
:100F000080B38E7F80BBECE7F0E0808180648083DB
:100F100087E880937A0008950E948503E2E0F1E07B
:100F200080818064808385E08A95F1F7000080816C
:100F30008F7B80838FE891E00197F1F700C000007C
:100F40000E94A5030895CF93C82F0E948503C0FF78
:100F500004C084B3806284BB03C084B38F7D84BB30
:100F6000C1FF04C08EB188608EB903C08EB1877F87
:100F70008EB9C2FF06C0E2E0F1E080818860808324
:100F800005C0E2E0F1E08081877F8083C3FF06C077
:100F9000E2E0F1E080818061808305C0E2E0F1E081
:100FA00080818F7E80830E948C070E94A503CF9151
:100FB00008950F931F93CF93DF93CDB7DEB7AE01A4
:100FC000485F5F4FDA016D917D91AD010BE814E050
:100FD000D8011296ED91FC911397838188608383E9
:100FE00080E092E00E947C13D8011296ED91FC9172
:100FF00013978381877F8383DF91CF911F910F9117
:101000000895CF93C82F0E948503E2E0F1E080812C
:101010008F7D80838C2F82958F700E94A3078C2FE9
:101020000E94A30785ED8A95F1F700000E94A503B1
:10103000CF9108950E948503E1E0F1E08081886707
:1010400080838DB188608DB983B3806283BB80B3A8
:10105000816080BB81B38E7F81BB2FEF80E792E000
:10106000215080409040E1F700C0000083E00E94E2
:10107000A3078FE19EE40197F1F700C0000083E031
:101080000E94A3078FE193E00197F1F700C00000F1
:1010900083E00E94A3078FE193E00197F1F700C07E
:1010A000000082E00E94A30788E20E9401088CE011
:1010B0000E94010881E00E94010886E00E94010868
:1010C0008FE19EE40197F1F700C000000E94A503A4
:1010D00008950E9485031092860481E00E94010811
:1010E0008FE39FE10197F1F700C000000E94A50384
:1010F00008958CE00E940108089588E00E9401088C
:101100000895CF93DF93D82FC62F823008F0D1E017
:101110000E9485038C2F90E4D99F800D1124806854
:101120000E94010880E1D89FC00D1124C09386045D
:101130000E94A503DF91CF910895CF93C82F0E94FD
:101140008503E2E0F1E08081806280838C2F8295CC
:101150008F700E94A3078C2F0E94A30785ED8A95AC
:10116000F1F700000E94A503CF91089560E080E0B0
:101170000E948108089560E081E00E94810808953E
:10118000CF93C82F0E948503CA3031F48091860422
:101190008071805F8093860480918604803119F489
:1011A0000E94BB0806C0803221F40E9469080E9498
:1011B000B6088C2F90E0FC01E458F109E034F10509
:1011C000D8F48827EE58FF4F8F4F0C947413CFEE4E
:1011D00013C0C5EF11C0C2EE0FC0CFEE0DC0C5EFFA
:1011E0000BC0CFED09C0C4EE07C00E94A5030EC01E
:1011F0000E94A5030BC0C1EE8C2F0E949D08809118
:1012000086048F5F809386040E94A503CF91089582
:101210000E94C00880E090E008950F931F93CF9341
:10122000DF93EC010E94850303C00E94C008E8011F
:101230008E010F5F1F4FFE0184918111F6CF0E9436
:10124000A503DF91CF911F910F910895FC01218596
:10125000928581E0291380E00895CF93DF93EC011C
:101260000E942609882341F085E293E09F938F93A3
:101270000E940F030F900F909985292F30E0FE01F7
:10128000E20FF31F80812F5F3F4F2930310514F4A7
:101290009F5F01C090E09987DF91CF910895FC0195
:1012A000228530E02F5F3F4F2930310514F020E0D8
:1012B00030E0FC01418550E081E02417350709F05A
:1012C00080E008951F93CF93DF93EC01162F0E94C7
:1012D0004F09882341F086E493E09F938F930E9407
:1012E0000F030F900F902A85822F90E0FE01E80FE8
:1012F000F91F10830196099714F42F5F01C020E0B5
:101300002A87DF91CF911F910895FC0111861286E3
:101310000895FC01218530E032C0DF01A20FB31F28
:101320005C91561324C018C0B9016F5F7F4F6930BC
:1013300071051CF0A0E0B0E001C0DB01AE0FBF1FE3
:101340005C91DF01A20FB31F5C93693071051CF043
:1013500020E030E001C09B012817390729F744231A
:1013600011F0415001C048E0428781E00895C90171
:10137000019620E030E0893091050CF49C01428513
:10138000842F90E02817390741F680E008951F92D6
:101390000F920FB60F9211248F939F93AF93BF9329
:1013A00080913B0290913C02A0913D02B0913E029F
:1013B0009058AF4FBF4F80933B0290933C02A09355
:1013C0003D02B0933E02BF91AF919F918F910F90DC
:1013D0000FBE0F901F901895E1E8F0E080818E7F9E
:1013E000808380818D7F808380818B7F808308953F
:1013F00010928000109285001092840081E090E0AD
:101400009093890080938800EFE6F0E0808181600E
:1014100080830E94EC0908950E94850383E090E098
:101420009093D5008093D400E0EDF0E080818D7F33
:101430008083E1EDF0E0808180618083808188603D
:1014400080830E94A50308959091D00095FFFCCF62
:101450008093D60008950F931F93CF93DF938C0151
:101460000E948503D0E00FC0F801ED0FF11DC4917B
:10147000CA3019F48DE00E94240ACC2331F08C2F5D
:101480000E94240ADF5FDF3F79F70E94A503DF9106
:10149000CF911F910F9108950E940C0A8EE092E067
:1014A00090938E0480938D040895CF93C82F8A3033
:1014B00019F48DE00E94240A8C2F0E94240ACF91F7
:1014C00008950E942B0A0895CF93C82F0E94850388
:1014D0008C2F0E94550ACA3021F485E693E00E94C1
:1014E000610A0E94A50380E090E0CF9108958AE010
:1014F0000E94550A08950F931F93CF93DF93CDB7A2
:10150000DEB70E948503888599850E94610A0BE8F1
:1015100014E0D8011296ED91FC91139783818860B5
:101520008383AE01445F5F4F6A857B8512968D9100
:101530009C9113970E947C13D8011296ED91FC9117
:1015400013978381877F83830E94770A0E94A50374
:10155000DF91CF911F910F9108951F920F920FB6B7
:101560000F9211240BB60F922F938F939F93EF93AB
:10157000FF938091C0002091C6008C71E09110040F
:10158000EF5F90910F04E91739F0E0931004F0E059
:10159000ED5EFB4F208301C082E090910E04892B09
:1015A00080930E04FF91EF919F918F912F910F9057
:1015B0000BBE0F900FBE0F901F9018951F920F92A9
:1015C0000FB60F9211240BB60F928F939F93EF9348
:1015D000FF939091120480911104981761F0E091AB
:1015E0001104EF5FE0931104F0E0ED5EFB4F8081AA
:1015F0008093C60005C0E1ECF0E080818F7D8083A0
:10160000FF91EF919F918F910F900BBE0F900FBEA6
:101610000F901F9018951F920F920FB60F921124E2
:101620000BB60F922F938F939F93EF93FF9380911D
:10163000C8002091CE008C71E091CB02EF5F9091B9
:10164000CA02E91739F0E093CB02F0E0E253FD4F14
:10165000208301C082E09091C902892B8093C90246
:10166000FF91EF919F918F912F910F900BBE0F9053
:101670000FBE0F901F9018951F920F920FB60F92EA
:1016800011240BB60F928F939F93EF93FF9390913A
:10169000CD028091CC02981769F0E091CC02EF5F07
:1016A000EF73E093CC02F0E0E253FC4F8081809333
:1016B000CE0005C0E9ECF0E080818F7D8083FF9152
:1016C000EF919F918F910F900BBE0F900FBE0F90D7
:1016D0001F9018951F920F920FB60F9211240BB600
:1016E0000F922F938F939F93EF93FF938091D0004E
:1016F0002091D6008C71E091C602EF5F9091C502F7
:10170000E91739F0E093C602F0E0E753FD4F20837C
:1017100001C082E09091C402892B8093C402FF91A2
:10172000EF919F918F912F910F900BBE0F900FBE55
:101730000F901F9018951F920F920FB60F921124C1
:101740000BB60F928F939F93EF93FF939091C802E4
:101750008091C702981761F0E091C702EF5FE093B4
:10176000C702F0E0E753FD4F80818093D60005C0AB
:10177000E1EDF0E080818F7D8083FF91EF919F917B
:101780008F910F900BBE0F900FBE0F901F9018956A
:101790001F920F920FB60F9211240BB60F922F9338
:1017A0008F939F93EF93FF938091300120913601A7
:1017B0008C71E0914102EF5FEF7390914002E91765
:1017C00039F0E0934102F0E0EC5BFD4F208301C073
:1017D00082E090913F02892B80933F02FF91EF912D
:1017E0009F918F912F910F900BBE0F900FBE0F9076
:1017F0001F9018951F920F920FB60F9211240BB6DF
:101800000F928F939F93EF93FF9390914302809158
:101810004202981769F0E0914202EF5FEF73E093A4
:101820004202F0E0EC57FD4F80818093360105C005
:10183000E1E3F1E080818F7D8083FF91EF919F91C3
:101840008F910F900BBE0F900FBE0F901F901895A9
:101850001F920F920FB60F9211248F939F93AF9305
:10186000BF938091870490918804A0918904B091DE
:101870008A040196A11DB11D80938704909388046A
:10188000A0938904B0938A04BF91AF919F918F91E7
:101890000F900FBE0F901F90189510928704109212
:1018A00088041092890410928A0485B5816085BDF0
:1018B00085B5826085BD85B58B7F85BD84B5826029
:1018C00084BD89EF87BDEEE6F0E080818260808391
:1018D00008950FB607FC18C0A99B16C085B3826097
:1018E00085BB8091870490918804A0918904B09170
:1018F0008A040196A11DB11D8093870490938804EA
:10190000A0938904B0938A048FB7282F221F22271F
:10191000221FF89460918704709188048091890453
:1019200090918A04222309F078940895CF92DF924F
:10193000EF92FF920F931F93CF93DF930097E1F005
:10194000EC010E94690C6B017C0106C08FE891E0FC
:101950000197F1F700C000000E94690CDC01CB0187
:101960008C199D09AE09BF098E0120E030E0801777
:101970009107A207B30750F3DF91CF911F910F9109
:10198000FF90EF90DF90CF900895CF93DF93CDB786
:10199000DEB79F8128858E8181110DC0AE01475F22
:1019A0005F4F5F934F932F939F930E940F030F906E
:1019B0000F900F900F90DF91CF9108950895FC0143
:1019C00080810895FC0160830895E0911C02F091EC
:1019D0001D0219950895CF92DF92EF92FF920F9317
:1019E0001F93CF93DF938C01DC011296CD90DC9096
:1019F00013971696ED90FC901797C0E0D0E00CC0BE
:101A0000D801ED91FC910480F581E02D60E0CE01DC
:101A10008C0D9D1D19952196CE15DF0588F3DF915C
:101A2000CF911F910F91FF90EF90DF90CF9008958D
:101A3000811103C086E292E0089580E090E008956D
:101A400081E090E008950F931F93CF93DF930E945E
:101A5000200D8C01C0E0D0E006C08C2F0E94180D34
:101A60000E94EB0C2196C017D107B8F3DF91CF91FC
:101A70001F910F910895FF920F931F93CF93DF93C0
:101A8000DC0114962D913C9115976217730708F4A9
:101A90003FC01896ED91FC911997E20FF31F6E1756
:101AA0007F07B0F5F42EEC01621B730B0A811B81DA
:101AB000CB0196958795080F191F60FD16C0E88128
:101AC000F9810280F381E02DC8011995B0E1FB9EF8
:101AD000A00111248F70682F642BE881F9810480A4
:101AE000F581E02DC801199513C0E881F9810280C4
:101AF000F381E02DC8011995807F4F2D4F70682F1D
:101B0000642BE881F9810480F581E02DC8011995E5
:101B1000DF91CF911F910F91FF900895FC012481D7
:101B200035816217730728F140855185420F531F95
:101B30006417750700F5621B730B22813381CB019B
:101B400096958795820F931F60FD0AC00190F081E2
:101B5000E02D0280F381E02D199582958F70089514
:101B60000190F081E02D0280F381E02D19958F70B6
:101B7000089580E0089580E008950F931F93CF9318
:101B8000DF938C01EB0101C02197F80184819581DD
:101B90008C179D0730F4BE01C8010E948E0D8F3056
:101BA00099F3CE01DF91CF911F910F910895CF93BB
:101BB000DF93EC010E94BD0DBC01CE010E948E0D91
:101BC000DF91CF910895EF92FF920F931F93CF93E0
:101BD000DF938C010E94BD0DEC01BC01C8010E9485
:101BE0008E0D8823E1F02196EE24E394F12C04C0BD
:101BF0008FEFE81AF80A2196F80124813581808553
:101C00009185820F931FC817D90760F4BE01C801E0
:101C10000E948E0D8F3061F38E2D9F2D05C080E0C8
:101C200090E002C08E2D9F2DDF91CF911F910F91DB
:101C3000FF90EF900895CF92DF92EF92FF920F9373
:101C40001F93CF93DF938C01EB01D42E0E94850369
:101C5000BE01C8010E94BD0D7C01BC01C8010E94EB
:101C6000D70D882311F08D1519F00E94A50315C01A
:101C7000B701C8010E94E30D6C01C0E0D0E008C0CC
:101C8000BE016E0D7F1D40E0C8010E943B0D2196F4
:101C9000CC15DD05A8F30E94A503DF91CF911F911C
:101CA0000F91FF90EF90DF90CF900895CF92DF9249
:101CB000EF92FF920F931F93CF93DF936C017B0101
:101CC0000E948503E114F10429F40E94A50380E039
:101CD00090E04BC0F60182858230B9F028F4882369
:101CE00041F0813061F023C08330A9F08430C9F025
:101CF0001EC0B701C6010E94700F8C011AC0B70147
:101D0000C6010E94760F8C0114C0B701C6010E9463
:101D10009E0F8C010EC0B701C6010E94FE0F8C0100
:101D200008C0B701C6010E94700F8C0102C000E01C
:101D300010E001151105A9F00E947F03482FB8019A
:101D4000C6010E943B0DC1E0D0E008C0B8016C0F95
:101D50007D1F4FE0C6010E943B0D2196CE15DF0589
:101D6000A8F30E94A503802F912FDF91CF911F919F
:101D70000F91FF90EF90DF90CF9008950F931F93F6
:101D8000CF93DF93EC018B010E947F03482FB801B2
:101D9000CE010E941B0EDF91CF911F910F910895EC
:101DA000BF92CF92DF92EF92FF920F931F93CF9348
:101DB000DF938C01B62E0E948503F801C481D58182
:101DC000E084F184EC0EFD1E1AC0BE01C8010E9421
:101DD0008E0D811102C0219612C0BE01C8010E9461
:101DE000E30D6C01BE01C8010E94D70D8B1105C027
:101DF0004B2DBE01C8010E941B0ECC0DDD1DCE1562
:101E0000DF0518F30E94A503DF91CF911F910F9179
:101E1000FF90EF90DF90CF90BF900895FC01628714
:101E20000895FC01868197810895FC018085918544
:101E30000895FC018281938108958F929F92AF92C1
:101E4000BF92CF92DF92EF92FF920F931F93CF93A7
:101E5000DF937C016B015A01FC01048115818085AF
:101E60009185080F191F27C0B501C7010E948E0D6B
:101E7000882331F018C0FFEF8F1A9F0A219603C004
:101E8000E501812C912CC017D10748F4BE01C70190
:101E90000E948E0D811103C08C149D0460F38C147C
:101EA0009D0441F40EC0B501C7010E94E30DE50198
:101EB000C80FD91F5E01A016B106B0F280E090E015
:101EC00002C08A2D9B2DDF91CF911F910F91FF9022
:101ED000EF90DF90CF90BF90AF909F908F9008953C
:101EE000FC01448155810E941D0F08950F931F939B
:101EF000CF93DF93EC018B014B855C850E941D0F16
:101F0000009731F44C815D81B801CE010E941D0F14
:101F1000009779F0080F191F1C870B874C815D8192
:101F200028853985240F351F0217130710F05C87A9
:101F30004B87DF91CF911F910F9108954F925F9240
:101F40006F927F928F929F92AF92BF92CF92DF92C9
:101F5000EF92FF920F931F93CF93DF937C015B016E
:101F6000FC01C480D580008511850C0D1D1D8824C1
:101F70008A94982C412C512C2BC0B601C7010E9489
:101F80008E0D882331F018C02196FFEF6F1A7F0A5B
:101F900003C03601C0E0D0E06016710630F4B30132
:101FA000C7010E948E0D882379F3CA15DB0578F0EE
:101FB000C815D90548F00BC0B601C7010E94E30D52
:101FC0003601680E791E03C04E014C2C5D2C630156
:101FD000C016D10690F2842D952DDF91CF911F91DF
:101FE0000F91FF90EF90DF90CF90BF90AF909F90B8
:101FF0008F907F906F905F904F9008954F925F9277
:102000006F927F928F929F92AF92BF92CF92DF9208
:10201000EF92FF920F931F93CF93DF937C015B01AD
:10202000FC01C480D580008511850C0D1D1D812CFF
:10203000912C412C512C2BC0B601C7010E948E0D52
:10204000882331F018C02196FFEF6F1A7F0A03C072
:102050003601C0E0D0E06016710630F4B301C7016C
:102060000E948E0D882379F3CA15DB0578F08C1653
:102070009D0648F00BC0B601C7010E94E30D360172
:10208000680E791E03C04E014C2C5D2C6301C016F6
:10209000D10690F2842D952DDF91CF911F910F9154
:1020A000FF90EF90DF90CF90BF90AF909F908F9078
:1020B0007F906F905F904F900895CF93DF93CDB74F
:1020C000DEB7A3970FB6F894DEBF0FBECDBF19825F
:1020D00081EB94E09B838A8381E08C838D832CEA5F
:1020E00034E03F832E83888792E0998727EA34E0A3
:1020F0003B872A878C8793E09D8721EA34E03F87DE
:102100002E87888B85E0E3E3F2E0DE015F960190A5
:102110000D928A95E1F786E292E00E94150FC29730
:1021200040F482E994E09F938F930E940F030F90F5
:102130000F900E9485030E94690881E894E00E9444
:102140000D0988EE93E00E94960C0E9469080E9497
:10215000A50386E292E00E94190F7C0100E010E0E6
:1021600018C0E0912602F09127020280F381E02D51
:10217000C8018E0D9F1D1995882349F00E94850383
:102180000E94690884E794E00E940D09FFCF0F5F69
:102190001F4F86E292E00E94110F0817190708F3FB
:1021A000D12C42C00D2D10E0F801EE0FFF1FEE0FF5
:1021B000FF1F21E030E02C0F3D1FE20FF31F838152
:1021C000882389F1F801EE0FFF1FEE0FFF1FE20FCA
:1021D000F31F608186E292E00E940E0F86E292E099
:1021E0000E94150FBC016F5F7F4F86E292E00E9454
:1021F000560E892BC1F00E9469088AE694E00E947D
:102200000D090E94BB08F801EE0FFF1FEE0FFF1F24
:1022100041E050E04C0F5D1FE40FF51F818192817A
:102220000E940D09FFCFD39453E05D1508F0BACF9B
:1022300060E086E292E00E940E0F00E010E019C01C
:10224000EFE1F0E0EC0FFD1FE00FF11F608170E0A7
:1022500086E292E00E94560EF801EE0FFF1F21E089
:1022600030E02C0F3D1FE20FF31F918B808B0F5F2F
:102270001F4F0530110520F300E010E011C0F801F8
:10228000EE0FFF1F41E050E04C0F5D1FE40FF51F04
:102290006089718986E292E00E94BE0E0E5F1F4F38
:1022A0000530110560F3D12CC12CFCC00C2D10E0C1
:1022B000F801EE0FFF1FEE0FFF1F81E090E08C0F83
:1022C0009D1FE80FF91F8381882309F4EAC00E944B
:1022D00069088AE594E00E940D090E94BB08000F7E
:1022E000111F000F111FE1E0F0E0EC0FFD1F0E0FBA
:1022F0001F1FF801818192810E940D09F801108150
:10230000612F86E292E00E940E0F88EE93E00E9419
:10231000960C0E9469080F2EF5E0AF2EB12CF02D1F
:102320001BC069A170E086E292E00E94560EF501A2
:10233000EE0FFF1F21E030E02C0F3D1FE20FF31FD7
:10234000918B808B123029F0BC0186E292E00E94D2
:10235000BE0E3FEFA31AB30A47E0A416B10408F378
:10236000113011F52B8D3C8D89899A8928173907F1
:1023700039F42D8D3E8D8D899E892817390759F0A6
:102380008BE494E00E940D0988EE93E00E94960C85
:10239000DD24D39404C08FE394E00E940D0988EEFD
:1023A00093E00E94960C7DC0111120C08B8D9C8DF6
:1023B0002D8D3E8D8217930729F429893A8982173A
:1023C000930759F08FE294E00E940D0988EE93E0A4
:1023D0000E94960CDD24D39404C082E294E00E9413
:1023E0000D0988EE93E00E94960C5BC01230A1F5B7
:1023F0002B8D3C8D8D899E892817390739F42D8DB9
:102400003E8D89899A892817390759F083E194E02C
:102410000E940D0988EE93E00E94960CDD24D3946F
:1024200004C087E094E00E940D0988EE93E00E94CA
:10243000960C6B8D7C8D6115710521F086E292E022
:102440000E94BE0E6D8D7E8D6115710551F186E283
:1024500092E00E94BE0E25C0133001F5298D3A8D01
:102460008B8D9C8D2817390729F42D8D3E8D821771
:10247000930759F087EF93E00E940D0988EE93E0EF
:102480000E94960CDD24D39404C08AEE93E00E944F
:102490000D0988EE93E00E94960C03C085E60E9429
:1024A000C008C39453E05C1508F000CF01E010E0D1
:1024B00011C0F801EE0FFF1F81E090E08C0F9D1F0F
:1024C000E80FF91F6089718986E292E00E94BE0ED2
:1024D0000E5F1F4F0430110560F300E010E018C0DC
:1024E000E0912602F09127020280F381E02DC801DD
:1024F0008E0D9F1D1995882349F00E9485030E9427
:10250000690882ED93E00E940D09FFCF0F5F1F4F16
:1025100086E292E00E94110F0817190708F30E9443
:1025200069088CEB93E00E940D0988EE93E00E940D
:10253000960C0E94690861E086E292E00E940E0F0C
:1025400086E292E00E94150F20E030E00BC0EFE140
:10255000F0E0EC0FFD1FE20FF31F4081841B910997
:102560002F5F3F4F2530310590F3BC0186E292E0AA
:102570000E94560E9A8B898BBC0186E292E00E94E3
:10258000BE0E00E010E019C0EFE1F0E0EC0FFD1F1F
:10259000E00FF11F608170E086E292E00E94560E2B
:1025A000F801EE0FFF1F21E030E02C0F3D1FE20F7E
:1025B000F31F918B808B0F5F1F4F0330110520F3AA
:1025C00086E292E00E94150F2F8DF8A08F2C912C9F
:1025D000A401420F511D9A0109A110E0200F311FE3
:1025E000BC01621B730B86E292E00E94560EAA2485
:1025F000A394B12C12C0F501EE0FFF1F81E090E013
:102600008C0F9D1FE80FF91F6089718986E292E0A7
:102610000E94BE0E9FEFA91AB90AE3E0AE16B104FC
:1026200050F36F2D70E086E292E00E94560EBC01DE
:1026300086E292E00E94BE0EB401600F711F86E236
:1026400092E00E94560E892B79F40E9485030E9425
:10265000690883EA93E00E940D0988EE93E00E94E6
:10266000960CDD24D39408C082E993E00E940D0902
:1026700088EE93E00E94960C0E946908D11011C068
:102680000E9469088BE793E00E940D0988EE93E0B1
:102690000E94960C0E94690888EE93E00E94960CB6
:1026A000EFCF0E9469088EE693E00E940D0988EE44
:1026B00093E00E94960C0E94690888EE93E00E94C5
:1026C000960CEFCF81E00E9479032DE530E1FC010B
:1026D000318320838091630490916404826090939D
:1026E0006404809363040895EE0FFF1F881F8BBF5F
:1026F0000790F691E02D1994CF93DF93EC018B8135
:1027000088608B83CE010E948B132B81277F2B83C4
:10271000DF91CF9108952F923F924F925F926F92E7
:102720007F928F929F92AF92BF92CF92DF92EF9261
:10273000FF920F931F93CF93DF93CDB7DEB72B9705
:102740000FB6F894DEBF0FBECDBF6C017B018A01CE
:10275000FC0117821682838181FFCCC1CE010196D4
:102760003C01F6019381F70193FD859193FF8191DF
:102770007F01882309F4BAC1853239F493FD85912C
:1027800093FF81917F01853229F4B60190E00E9488
:10279000AB15E7CF912C212C312CFFE1F315D8F0AC
:1027A0008B3279F038F4803279F08332A1F4232D22
:1027B00020611DC08D3261F0803369F4232D2160CA
:1027C00016C0832D8260382EE32DE4603E2E2AC091
:1027D000F32DF8601DC037FC2DC020ED280F2A30E6
:1027E00040F08E32B9F436FC81C1232D2064322EA4
:1027F00019C036FE06C08AE0989E200D1124922E44
:1028000011C0EAE02E9E200D1124222EF32DF0623D
:102810003F2E08C08C3621F4832D8068382E02C0EC
:10282000883641F4F70193FD859193FF81917F01F3
:102830008111B3CF982F9F7D9554933028F40C5F6E
:102840001F4F9FE399830DC0833631F0833771F0BA
:10285000833509F059C021C0F801808189830E5F5A
:102860001F4F88248394912C530113C02801F2E058
:102870004F0E511CF801A080B18036FE03C0692DB7
:1028800070E002C06FEF7FEFC5010E94A0154C0100
:102890008201F32DFF773F2E16C0280122E0420E61
:1028A000511CF801A080B18036FE03C0692D70E094
:1028B00002C06FEF7FEFC5010E9495154C01F32D0B
:1028C000F0683F2E820133FC1BC0822D90E08816F9
:1028D0009906B0F4B60180E290E00E94AB152A940C
:1028E000F4CFF50137FC859137FE81915F01B60188
:1028F00090E00E94AB1521102A9421E0821A9108E1
:102900008114910471F7E8C0843611F0893641F5DD
:10291000F80137FE07C060817181828193810C5F6D
:102920001F4F08C060817181072E000C880B990B26
:102930000E5F1F4FF32DFF763F2E97FF09C0909536
:102940008095709561957F4F8F4F9F4FF0683F2E18
:102950002AE030E0A3010E94E715882E861845C0C2
:10296000853731F4232D2F7EB22E2AE030E025C0AA
:10297000932D997FB92E8F36C1F018F4883579F0F0
:10298000B5C0803719F0883721F0B0C0E92FE06179
:10299000BE2EB4FE0DC0FB2DF460BF2E09C034FE68
:1029A0000AC0292F2660B22E06C028E030E005C0FC
:1029B00020E130E002C020E132E0F801B7FE07C0BC
:1029C00060817181828193810C5F1F4F06C060819D
:1029D000718180E090E00E5F1F4FA3010E94E71518
:1029E000882E8618FB2DFF773F2E36FE0DC0232D37
:1029F0002E7FA22E891458F434FE0BC032FC09C07D
:102A0000832D8E7EA82E05C0B82CA32C03C0B82C15
:102A100001C0B92CA4FE0FC0FE01E80DF11D80819C
:102A2000803321F49A2D997EA92E09C0A2FE06C0FA
:102A3000B394B39404C08A2D867809F0B394A3FCB0
:102A400011C0A0FE06C0B21488F4280C922C9B186A
:102A50000EC0B21460F4B60180E290E00E94AB15A3
:102A6000B394F7CFB21418F42B1802C0982C212C71
:102A7000A4FE10C0B60180E390E00E94AB15A2FE58
:102A800017C0A1FC03C088E790E002C088E590E091
:102A9000B6010CC08A2D867859F0A1FE02C08BE2E7
:102AA00001C080E2A7FC8DE2B60190E00E94AB1568
:102AB000891438F4B60180E390E00E94AB159A9433
:102AC000F7CF8A94F301E80DF11D8081B60190E003
:102AD0000E94AB158110F5CF222009F442CEB60139
:102AE00080E290E00E94AB152A94F6CFF601868131
:102AF000978102C08FEF9FEF2B960FB6F894DEBF41
:102B00000FBECDBFDF91CF911F910F91FF90EF903E
:102B1000DF90CF90BF90AF909F908F907F906F90FD
:102B20005F904F903F902F900895FC010590615069
:102B300070400110D8F7809590958E0F9F1F0895D3
:102B4000FC016150704001900110D8F7809590957C
:102B50008E0F9F1F08950F931F93CF93DF93FB0159
:102B6000238121FD03C08FEF9FEF2CC022FF16C0F1
:102B700046815781248135814217530744F4A0814F
:102B8000B1819D012F5F3F4F318320838C9326813C
:102B900037812F5F3F4F3783268314C08B01EC01B1
:102BA000FB010084F185E02D1995892BE1F6D80110
:102BB00016968D919C911797019617969C938E93DC
:102BC0001697CE01DF91CF911F910F910895FA01D1
:102BD000AA27283051F1203181F1E8946F936E7F5C
:102BE0006E5F7F4F8F4F9F4FAF4FB1E03ED0B4E04D
:102BF0003CD0670F781F891F9A1FA11D680F791F8E
:102C00008A1F911DA11D6A0F711D811D911DA11D9E
:102C100020D009F468943F912AE0269F11243019AE
:102C2000305D3193DEF6CF010895462F4770405D49
:102C30004193B3E00FD0C9F7F6CF462F4F70405DF8
:102C40004A3318F0495D31FD4052419302D0A9F753
:102C5000EACFB4E0A6959795879577956795BA954D
:102C6000C9F700976105710508959B01AC010A2E13
:102C700006945795479537952795BA95C9F7620FEA
:0E2C8000731F841F951FA01D0895F894FFCFA9
:102C8E000000000200000000080900000000000023
:102C9E00000200000000640A00000000DE0CDF0CE1
:102CAE00E20C000200201C02E805F00908041008DE
:082CBE0000F0090F050A0501F1
:00000001FF
